{"abi":[{"type":"function","name":"execTransaction","inputs":[{"name":"safeTx","type":"tuple","internalType":"struct ISafeTx.SafeTx","components":[{"name":"to","type":"address","internalType":"address"},{"name":"value","type":"uint256","internalType":"uint256"},{"name":"data","type":"bytes","internalType":"bytes"},{"name":"operation","type":"uint8","internalType":"uint8"},{"name":"safeTxGas","type":"uint256","internalType":"uint256"},{"name":"baseGas","type":"uint256","internalType":"uint256"},{"name":"gasPrice","type":"uint256","internalType":"uint256"},{"name":"gasToken","type":"address","internalType":"address"},{"name":"refundReceiver","type":"address","internalType":"address"},{"name":"nonce","type":"uint256","internalType":"uint256"}]}],"outputs":[{"name":"success","type":"bool","internalType":"bool"}],"stateMutability":"nonpayable"},{"type":"function","name":"getChainId","inputs":[],"outputs":[{"name":"","type":"uint256","internalType":"uint256"}],"stateMutability":"view"},{"type":"function","name":"nonce","inputs":[],"outputs":[{"name":"","type":"uint256","internalType":"uint256"}],"stateMutability":"view"},{"type":"function","name":"setGuard","inputs":[{"name":"guard","type":"address","internalType":"address"}],"outputs":[],"stateMutability":"nonpayable"},{"type":"event","name":"ChangedGuard","inputs":[{"name":"guard","type":"address","indexed":true,"internalType":"address"}],"anonymous":false},{"type":"event","name":"ExecutionFailure","inputs":[{"name":"txHash","type":"bytes32","indexed":true,"internalType":"bytes32"},{"name":"payment","type":"uint256","indexed":false,"internalType":"uint256"}],"anonymous":false},{"type":"event","name":"ExecutionSuccess","inputs":[{"name":"txHash","type":"bytes32","indexed":true,"internalType":"bytes32"},{"name":"payment","type":"uint256","indexed":false,"internalType":"uint256"}],"anonymous":false}],"bytecode":{"object":"0x608060405234801561000f575f80fd5b50610bc68061001d5f395ff3fe608060405234801561000f575f80fd5b506004361061004a575f3560e01c80633408e4701461004e578063807cd28f14610063578063affed0e014610086578063e19a9dd91461008f575b5f80fd5b465b6040519081526020015b60405180910390f35b6100766100713660046108ca565b6100a4565b604051901515815260200161005a565b61005060055481565b6100a261009d366004610902565b610451565b005b5f806100b36020840184610902565b905060208301355f6100c86040860186610928565b8080601f0160208091040260200160405190810160405280939291908181526020018383808284375f92018290525093945061010e925050506080870160608801610972565b9050608086013560a087013560c08801355f6101316101008b0160e08c01610902565b90505f6101466101208c016101008d01610902565b90506101208b01355f6101777f4a204f620c8c5ccdca3fd54d003badd85ba500436a431f0cbda4f558c93c34c85490565b90506001600160a01b0381161561020857806001600160a01b03166375f0bb528c8c8c8c60ff1660018111156101af576101af610992565b8c8c8c8c8c336040518b63ffffffff1660e01b81526004016101da9a999897969594939291906109c6565b5f604051808303815f87803b1580156101f1575f80fd5b505af1158015610203573d5f803e3d5ffd5b505050505b60058054905f61021783610ac4565b919050558214610232576102326411d4cc0c8d60da1b610569565b5f6102598c8c8c8c60ff16600181111561024e5761024e610992565b8c8c8c8c8c8c61058e565b8051602090910120905061026f886109c4610adc565b61027e603f60068b901b610aef565b116102945761028f886109c4610adc565b6102a3565b6102a3603f60068a901b610aef565b6102af906101f4610adc565b5a10156102c7576102c764047533031360dc1b610569565b5f5a90506103058d8d8d8d60ff1660018111156102e6576102e6610992565b8b156102f2578d6106a8565b6109c45a6103009190610b0e565b6106a8565b9d505a6103129082610b0e565b90508d158015610320575088155b801561032a575086155b1561033a576040513d5f823e3d81fd5b5f87156103515761034e828a8a8a8a6106ec565b90505b8e1561039657827f442e715f626346e8c54381002da614f62bee8d27386535b2521ec8540898556e8260405161038991815260200190565b60405180910390a26103d1565b827f23428b18acfb3ea64b08dc0c1d296ea9c09702c09083ca5272e64d115b687d23826040516103c891815260200190565b60405180910390a25b50506001600160a01b0382161561044057604051631264e26d60e31b8152600481018290528d151560248201526001600160a01b038316906393271368906044015f604051808303815f87803b158015610429575f80fd5b505af115801561043b573d5f803e3d5ffd5b505050505b505050505050505050505050919050565b6104596107b2565b6001600160a01b0381161561050e576040516301ffc9a760e01b815263736bd41d60e11b60048201526001600160a01b038216906301ffc9a790602401602060405180830381865afa1580156104b1573d5f803e3d5ffd5b505050506040513d601f19601f820116820180604052508101906104d59190610b21565b61050e5760405162461bcd60e51b8152602060048201526005602482015264047533330360dc1b60448201526064015b60405180910390fd5b7f4a204f620c8c5ccdca3fd54d003badd85ba500436a431f0cbda4f558c93c34c88181556040516001600160a01b038316907f1151116914515bc0891ff9047a6cb32cf902546f83066499bcf8ba33d2353fa2905f90a25050565b60405162461bcd60e51b81526020600482015260056024820152816044820152606481fd5b60605f7fbb8310d486368db6bd6f849402fdd73ad53d316b5a4b2644ad6efe0f941286d85f1b8c8c8c805190602001208c8c8c8c8c8c8c6040516020016105df9b9a99989796959493929190610b40565b60408051601f1981840301815291905280516020909101209050601960f81b600160f81b61065c5f7f47e79534a245952e8b16893a336b85a3d9ea9fa8c573f3d803afb92a794692184660408051602081019390935282015230606082015260800160405160208183030381529060405280519060200120905090565b6040516001600160f81b031993841660208201529290911660218301526022820152604281018290526062016040516020818303038152906040529150509a9950505050505050505050565b5f60018360018111156106bd576106bd610992565b036106d4575f808551602087018986f490506106e3565b5f80855160208701888a87f190505b95945050505050565b5f806001600160a01b038316156107035782610705565b325b90506001600160a01b038416610778576107373a8610610725573a610727565b855b61073189896107eb565b9061080e565b6040519092506001600160a01b0382169083156108fc029084905f818181858888f193505050506107735761077364475330313160d81b610569565b6107a8565b6107868561073189896107eb565b915061079384828461083e565b6107a8576107a86423a998189960d91b610569565b5095945050505050565b3330146107e95760405162461bcd60e51b8152602060048201526005602482015264475330333160d81b6044820152606401610505565b565b5f806107f78385610adc565b905083811015610805575f80fd5b90505b92915050565b5f825f0361081d57505f610808565b5f6108288385610baf565b9050826108358583610aef565b14610805575f80fd5b604080516001600160a01b03841660248201526044808201849052825180830390910181526064909101909152602080820180516001600160e01b031663a9059cbb60e01b17815282515f93929184919082896127105a03f13d80156108ae57602081146108b6575f93506108c0565b8193506108c0565b5f51158215171593505b5050509392505050565b5f602082840312156108da575f80fd5b813567ffffffffffffffff8111156108f0575f80fd5b82016101408185031215610805575f80fd5b5f60208284031215610912575f80fd5b81356001600160a01b0381168114610805575f80fd5b5f808335601e1984360301811261093d575f80fd5b83018035915067ffffffffffffffff821115610957575f80fd5b60200191503681900382131561096b575f80fd5b9250929050565b5f60208284031215610982575f80fd5b813560ff81168114610805575f80fd5b634e487b7160e01b5f52602160045260245ffd5b600281106109c257634e487b7160e01b5f52602160045260245ffd5b9052565b6001600160a01b038b16815260208082018b9052610160604083018190528a519083018190525f9182915b80831015610a10578c83018201518584016101800152918101916109f1565b61018092505f838287010152601f19601f8201168501915050610a36606085018c6109a6565b8960808501528860a08501528760c0850152610a5d60e08501886001600160a01b03169052565b6001600160a01b0386166101008501528184820301610120850152610a878282015f815260200190565b92505050610aa16101408301846001600160a01b03169052565b9b9a5050505050505050505050565b634e487b7160e01b5f52601160045260245ffd5b5f60018201610ad557610ad5610ab0565b5060010190565b8082018082111561080857610808610ab0565b5f82610b0957634e487b7160e01b5f52601260045260245ffd5b500490565b8181038181111561080857610808610ab0565b5f60208284031215610b31575f80fd5b81518015158114610805575f80fd5b8b81526001600160a01b038b81166020830152604082018b9052606082018a9052610160820190610b74608084018b6109a6565b60a083019890985260c082019690965260e0810194909452918516610100840152909316610120820152610140019190915295945050505050565b808202811582820484141761080857610808610ab056","linkReferences":{}},"methodIdentifiers":{"execTransaction((address,uint256,bytes,uint8,uint256,uint256,uint256,address,address,uint256))":"807cd28f","getChainId()":"3408e470","nonce()":"affed0e0","setGuard(address)":"e19a9dd9"},"id":45}