{"abi":[{"type":"fallback","stateMutability":"nonpayable"},{"type":"receive","stateMutability":"payable"},{"type":"function","name":"VERSION","inputs":[],"outputs":[{"name":"","type":"string","internalType":"string"}],"stateMutability":"view"},{"type":"function","name":"addOwnerWithThreshold","inputs":[{"name":"owner","type":"address","internalType":"address"},{"name":"_threshold","type":"uint256","internalType":"uint256"}],"outputs":[],"stateMutability":"nonpayable"},{"type":"function","name":"approveHash","inputs":[{"name":"hashToApprove","type":"bytes32","internalType":"bytes32"}],"outputs":[],"stateMutability":"nonpayable"},{"type":"function","name":"approvedHashes","inputs":[{"name":"","type":"address","internalType":"address"},{"name":"","type":"bytes32","internalType":"bytes32"}],"outputs":[{"name":"","type":"uint256","internalType":"uint256"}],"stateMutability":"view"},{"type":"function","name":"changeThreshold","inputs":[{"name":"_threshold","type":"uint256","internalType":"uint256"}],"outputs":[],"stateMutability":"nonpayable"},{"type":"function","name":"checkNSignatures","inputs":[{"name":"dataHash","type":"bytes32","internalType":"bytes32"},{"name":"data","type":"bytes","internalType":"bytes"},{"name":"signatures","type":"bytes","internalType":"bytes"},{"name":"requiredSignatures","type":"uint256","internalType":"uint256"}],"outputs":[],"stateMutability":"view"},{"type":"function","name":"checkSignatures","inputs":[{"name":"dataHash","type":"bytes32","internalType":"bytes32"},{"name":"data","type":"bytes","internalType":"bytes"},{"name":"signatures","type":"bytes","internalType":"bytes"}],"outputs":[],"stateMutability":"view"},{"type":"function","name":"disableModule","inputs":[{"name":"prevModule","type":"address","internalType":"address"},{"name":"module","type":"address","internalType":"address"}],"outputs":[],"stateMutability":"nonpayable"},{"type":"function","name":"domainSeparator","inputs":[],"outputs":[{"name":"","type":"bytes32","internalType":"bytes32"}],"stateMutability":"view"},{"type":"function","name":"enableModule","inputs":[{"name":"module","type":"address","internalType":"address"}],"outputs":[],"stateMutability":"nonpayable"},{"type":"function","name":"encodeTransactionData","inputs":[{"name":"to","type":"address","internalType":"address"},{"name":"value","type":"uint256","internalType":"uint256"},{"name":"data","type":"bytes","internalType":"bytes"},{"name":"operation","type":"uint8","internalType":"enum Enum.Operation"},{"name":"safeTxGas","type":"uint256","internalType":"uint256"},{"name":"baseGas","type":"uint256","internalType":"uint256"},{"name":"gasPrice","type":"uint256","internalType":"uint256"},{"name":"gasToken","type":"address","internalType":"address"},{"name":"refundReceiver","type":"address","internalType":"address"},{"name":"_nonce","type":"uint256","internalType":"uint256"}],"outputs":[{"name":"","type":"bytes","internalType":"bytes"}],"stateMutability":"view"},{"type":"function","name":"execTransaction","inputs":[{"name":"to","type":"address","internalType":"address"},{"name":"value","type":"uint256","internalType":"uint256"},{"name":"data","type":"bytes","internalType":"bytes"},{"name":"operation","type":"uint8","internalType":"enum Enum.Operation"},{"name":"safeTxGas","type":"uint256","internalType":"uint256"},{"name":"baseGas","type":"uint256","internalType":"uint256"},{"name":"gasPrice","type":"uint256","internalType":"uint256"},{"name":"gasToken","type":"address","internalType":"address"},{"name":"refundReceiver","type":"address","internalType":"address payable"},{"name":"signatures","type":"bytes","internalType":"bytes"}],"outputs":[{"name":"success","type":"bool","internalType":"bool"}],"stateMutability":"payable"},{"type":"function","name":"execTransaction","inputs":[{"name":"safeTx","type":"tuple","internalType":"struct ISafeTx.SafeTx","components":[{"name":"to","type":"address","internalType":"address"},{"name":"value","type":"uint256","internalType":"uint256"},{"name":"data","type":"bytes","internalType":"bytes"},{"name":"operation","type":"uint8","internalType":"uint8"},{"name":"safeTxGas","type":"uint256","internalType":"uint256"},{"name":"baseGas","type":"uint256","internalType":"uint256"},{"name":"gasPrice","type":"uint256","internalType":"uint256"},{"name":"gasToken","type":"address","internalType":"address"},{"name":"refundReceiver","type":"address","internalType":"address"},{"name":"nonce","type":"uint256","internalType":"uint256"}]}],"outputs":[{"name":"success","type":"bool","internalType":"bool"}],"stateMutability":"nonpayable"},{"type":"function","name":"execTransactionFromModule","inputs":[{"name":"to","type":"address","internalType":"address"},{"name":"value","type":"uint256","internalType":"uint256"},{"name":"data","type":"bytes","internalType":"bytes"},{"name":"operation","type":"uint8","internalType":"enum Enum.Operation"}],"outputs":[{"name":"success","type":"bool","internalType":"bool"}],"stateMutability":"nonpayable"},{"type":"function","name":"execTransactionFromModuleReturnData","inputs":[{"name":"to","type":"address","internalType":"address"},{"name":"value","type":"uint256","internalType":"uint256"},{"name":"data","type":"bytes","internalType":"bytes"},{"name":"operation","type":"uint8","internalType":"enum Enum.Operation"}],"outputs":[{"name":"success","type":"bool","internalType":"bool"},{"name":"returnData","type":"bytes","internalType":"bytes"}],"stateMutability":"nonpayable"},{"type":"function","name":"getChainId","inputs":[],"outputs":[{"name":"","type":"uint256","internalType":"uint256"}],"stateMutability":"view"},{"type":"function","name":"getModulesPaginated","inputs":[{"name":"start","type":"address","internalType":"address"},{"name":"pageSize","type":"uint256","internalType":"uint256"}],"outputs":[{"name":"array","type":"address[]","internalType":"address[]"},{"name":"next","type":"address","internalType":"address"}],"stateMutability":"view"},{"type":"function","name":"getOwners","inputs":[],"outputs":[{"name":"","type":"address[]","internalType":"address[]"}],"stateMutability":"view"},{"type":"function","name":"getStorageAt","inputs":[{"name":"offset","type":"uint256","internalType":"uint256"},{"name":"length","type":"uint256","internalType":"uint256"}],"outputs":[{"name":"","type":"bytes","internalType":"bytes"}],"stateMutability":"view"},{"type":"function","name":"getThreshold","inputs":[],"outputs":[{"name":"","type":"uint256","internalType":"uint256"}],"stateMutability":"view"},{"type":"function","name":"getTransactionHash","inputs":[{"name":"to","type":"address","internalType":"address"},{"name":"value","type":"uint256","internalType":"uint256"},{"name":"data","type":"bytes","internalType":"bytes"},{"name":"operation","type":"uint8","internalType":"enum Enum.Operation"},{"name":"safeTxGas","type":"uint256","internalType":"uint256"},{"name":"baseGas","type":"uint256","internalType":"uint256"},{"name":"gasPrice","type":"uint256","internalType":"uint256"},{"name":"gasToken","type":"address","internalType":"address"},{"name":"refundReceiver","type":"address","internalType":"address"},{"name":"_nonce","type":"uint256","internalType":"uint256"}],"outputs":[{"name":"","type":"bytes32","internalType":"bytes32"}],"stateMutability":"view"},{"type":"function","name":"isModuleEnabled","inputs":[{"name":"module","type":"address","internalType":"address"}],"outputs":[{"name":"","type":"bool","internalType":"bool"}],"stateMutability":"view"},{"type":"function","name":"isOwner","inputs":[{"name":"owner","type":"address","internalType":"address"}],"outputs":[{"name":"","type":"bool","internalType":"bool"}],"stateMutability":"view"},{"type":"function","name":"nonce","inputs":[],"outputs":[{"name":"","type":"uint256","internalType":"uint256"}],"stateMutability":"view"},{"type":"function","name":"removeOwner","inputs":[{"name":"prevOwner","type":"address","internalType":"address"},{"name":"owner","type":"address","internalType":"address"},{"name":"_threshold","type":"uint256","internalType":"uint256"}],"outputs":[],"stateMutability":"nonpayable"},{"type":"function","name":"setFallbackHandler","inputs":[{"name":"handler","type":"address","internalType":"address"}],"outputs":[],"stateMutability":"nonpayable"},{"type":"function","name":"setGuard","inputs":[{"name":"guard","type":"address","internalType":"address"}],"outputs":[],"stateMutability":"nonpayable"},{"type":"function","name":"setup","inputs":[{"name":"_owners","type":"address[]","internalType":"address[]"},{"name":"_threshold","type":"uint256","internalType":"uint256"},{"name":"to","type":"address","internalType":"address"},{"name":"data","type":"bytes","internalType":"bytes"},{"name":"fallbackHandler","type":"address","internalType":"address"},{"name":"paymentToken","type":"address","internalType":"address"},{"name":"payment","type":"uint256","internalType":"uint256"},{"name":"paymentReceiver","type":"address","internalType":"address payable"}],"outputs":[],"stateMutability":"nonpayable"},{"type":"function","name":"signedMessages","inputs":[{"name":"","type":"bytes32","internalType":"bytes32"}],"outputs":[{"name":"","type":"uint256","internalType":"uint256"}],"stateMutability":"view"},{"type":"function","name":"simulateAndRevert","inputs":[{"name":"targetContract","type":"address","internalType":"address"},{"name":"calldataPayload","type":"bytes","internalType":"bytes"}],"outputs":[],"stateMutability":"nonpayable"},{"type":"function","name":"swapOwner","inputs":[{"name":"prevOwner","type":"address","internalType":"address"},{"name":"oldOwner","type":"address","internalType":"address"},{"name":"newOwner","type":"address","internalType":"address"}],"outputs":[],"stateMutability":"nonpayable"},{"type":"event","name":"AddedOwner","inputs":[{"name":"owner","type":"address","indexed":true,"internalType":"address"}],"anonymous":false},{"type":"event","name":"ApproveHash","inputs":[{"name":"approvedHash","type":"bytes32","indexed":true,"internalType":"bytes32"},{"name":"owner","type":"address","indexed":true,"internalType":"address"}],"anonymous":false},{"type":"event","name":"ChangedFallbackHandler","inputs":[{"name":"handler","type":"address","indexed":true,"internalType":"address"}],"anonymous":false},{"type":"event","name":"ChangedGuard","inputs":[{"name":"guard","type":"address","indexed":true,"internalType":"address"}],"anonymous":false},{"type":"event","name":"ChangedThreshold","inputs":[{"name":"threshold","type":"uint256","indexed":false,"internalType":"uint256"}],"anonymous":false},{"type":"event","name":"DisabledModule","inputs":[{"name":"module","type":"address","indexed":true,"internalType":"address"}],"anonymous":false},{"type":"event","name":"EnabledModule","inputs":[{"name":"module","type":"address","indexed":true,"internalType":"address"}],"anonymous":false},{"type":"event","name":"ExecutionFailure","inputs":[{"name":"txHash","type":"bytes32","indexed":true,"internalType":"bytes32"},{"name":"payment","type":"uint256","indexed":false,"internalType":"uint256"}],"anonymous":false},{"type":"event","name":"ExecutionFromModuleFailure","inputs":[{"name":"module","type":"address","indexed":true,"internalType":"address"}],"anonymous":false},{"type":"event","name":"ExecutionFromModuleSuccess","inputs":[{"name":"module","type":"address","indexed":true,"internalType":"address"}],"anonymous":false},{"type":"event","name":"ExecutionSuccess","inputs":[{"name":"txHash","type":"bytes32","indexed":true,"internalType":"bytes32"},{"name":"payment","type":"uint256","indexed":false,"internalType":"uint256"}],"anonymous":false},{"type":"event","name":"RemovedOwner","inputs":[{"name":"owner","type":"address","indexed":true,"internalType":"address"}],"anonymous":false},{"type":"event","name":"SafeReceived","inputs":[{"name":"sender","type":"address","indexed":true,"internalType":"address"},{"name":"value","type":"uint256","indexed":false,"internalType":"uint256"}],"anonymous":false},{"type":"event","name":"SafeSetup","inputs":[{"name":"initiator","type":"address","indexed":true,"internalType":"address"},{"name":"owners","type":"address[]","indexed":false,"internalType":"address[]"},{"name":"threshold","type":"uint256","indexed":false,"internalType":"uint256"},{"name":"initializer","type":"address","indexed":false,"internalType":"address"},{"name":"fallbackHandler","type":"address","indexed":false,"internalType":"address"}],"anonymous":false},{"type":"event","name":"SignMsg","inputs":[{"name":"msgHash","type":"bytes32","indexed":true,"internalType":"bytes32"}],"anonymous":false}],"bytecode":{"object":"0x608060405234801561000f575f80fd5b506001600481905550616b2e80620000265f395ff3fe6080604052600436106101db575f3560e01c8063a0e67e2b11610101578063e19a9dd911610094578063f08a032311610063578063f08a0323146107b9578063f698da25146107e1578063f8dc5dd91461080b578063ffa1ad741461083357610230565b8063e19a9dd914610703578063e318b52b1461072b578063e75235b814610753578063e86637db1461077d57610230565b8063cc2f8452116100d0578063cc2f84521461063a578063d4d9bdcd14610677578063d8d11f781461069f578063e009cfde146106db57610230565b8063a0e67e2b14610596578063affed0e0146105c0578063b4faba09146105ea578063b63e800d1461061257610230565b80635624b25b116101795780636a761202116101485780636a761202146104c65780637d832974146104f6578063807cd28f14610532578063934f3a111461056e57610230565b80635624b25b146103fe5780635ae6bd371461043a578063610b592514610476578063694e80c31461049e57610230565b80632f54bf6e116101b55780632f54bf6e1461031f5780633408e4701461035b578063468721a7146103855780635229073f146103c157610230565b80630d582f131461029357806312fb68e0146102bb5780632d9ad53d146102e357610230565b36610230573373ffffffffffffffffffffffffffffffffffffffff167f3d0ce9bfc3ed7d6862dbb28b2dea94561fe714a1b4d019aa8af39730d1ad7c3d346040516102269190614640565b60405180910390a2005b34801561023b575f80fd5b505f7f6c9a6c4a39284e37ed1cf53d337577d14212a4870fb976a4366c693b939918d55f1b905080548061026d575f80f35b365f80373360601b36525f80601436015f80855af13d5f803e8061028f573d5ffd5b3d5ff35b34801561029e575f80fd5b506102b960048036038101906102b491906146ee565b61085d565b005b3480156102c6575f80fd5b506102e160048036038101906102dc919061489b565b610bd4565b005b3480156102ee575f80fd5b5061030960048036038101906103049190614937565b6111f2565b604051610316919061497c565b60405180910390f35b34801561032a575f80fd5b5061034560048036038101906103409190614937565b6112bf565b604051610352919061497c565b60405180910390f35b348015610366575f80fd5b5061036f61138c565b60405161037c9190614640565b60405180910390f35b348015610390575f80fd5b506103ab60048036038101906103a691906149b8565b611398565b6040516103b8919061497c565b60405180910390f35b3480156103cc575f80fd5b506103e760048036038101906103e291906149b8565b611566565b6040516103f5929190614ab2565b60405180910390f35b348015610409575f80fd5b50610424600480360381019061041f9190614ae0565b61159a565b6040516104319190614b1e565b60405180910390f35b348015610445575f80fd5b50610460600480360381019061045b9190614b3e565b61162a565b60405161046d9190614640565b60405180910390f35b348015610481575f80fd5b5061049c60048036038101906104979190614937565b61163f565b005b3480156104a9575f80fd5b506104c460048036038101906104bf9190614b69565b611953565b005b6104e060048036038101906104db9190614c2c565b611a27565b6040516104ed919061497c565b60405180910390f35b348015610501575f80fd5b5061051c60048036038101906105179190614d41565b611dd0565b6040516105299190614640565b60405180910390f35b34801561053d575f80fd5b5061055860048036038101906105539190614da2565b611df0565b604051610565919061497c565b60405180910390f35b348015610579575f80fd5b50610594600480360381019061058f9190614de9565b612222565b005b3480156105a1575f80fd5b506105aa61227c565b6040516105b79190614f28565b60405180910390f35b3480156105cb575f80fd5b506105d461242c565b6040516105e19190614640565b60405180910390f35b3480156105f5575f80fd5b50610610600480360381019061060b9190614f48565b612432565b005b34801561061d575f80fd5b5061063860048036038101906106339190614ff7565b612450565b005b348015610645575f80fd5b50610660600480360381019061065b91906146ee565b61259e565b60405161066e9291906150f7565b60405180910390f35b348015610682575f80fd5b5061069d60048036038101906106989190614b3e565b6128b0565b005b3480156106aa575f80fd5b506106c560048036038101906106c09190615125565b612a13565b6040516106d2919061522d565b60405180910390f35b3480156106e6575f80fd5b5061070160048036038101906106fc9190615246565b612a3f565b005b34801561070e575f80fd5b5061072960048036038101906107249190614937565b612d52565b005b348015610736575f80fd5b50610751600480360381019061074c9190615284565b612ed5565b005b34801561075e575f80fd5b50610767613451565b6040516107749190614640565b60405180910390f35b348015610788575f80fd5b506107a3600480360381019061079e9190615125565b61345a565b6040516107b09190614b1e565b60405180910390f35b3480156107c4575f80fd5b506107df60048036038101906107da9190614937565b61351a565b005b3480156107ec575f80fd5b506107f5613571565b604051610802919061522d565b60405180910390f35b348015610816575f80fd5b50610831600480360381019061082c91906152d4565b6135cb565b005b34801561083e575f80fd5b5061084761395a565b6040516108549190615376565b60405180910390f35b610865613993565b5f73ffffffffffffffffffffffffffffffffffffffff168273ffffffffffffffffffffffffffffffffffffffff16141580156108ce5750600173ffffffffffffffffffffffffffffffffffffffff168273ffffffffffffffffffffffffffffffffffffffff1614155b801561090657503073ffffffffffffffffffffffffffffffffffffffff168273ffffffffffffffffffffffffffffffffffffffff1614155b610945576040517f08c379a000000000000000000000000000000000000000000000000000000000815260040161093c906153e0565b60405180910390fd5b5f73ffffffffffffffffffffffffffffffffffffffff1660025f8473ffffffffffffffffffffffffffffffffffffffff1673ffffffffffffffffffffffffffffffffffffffff1681526020019081526020015f205f9054906101000a900473ffffffffffffffffffffffffffffffffffffffff1673ffffffffffffffffffffffffffffffffffffffff1614610a0f576040517f08c379a0000000000000000000000000000000000000000000000000000000008152600401610a0690615448565b60405180910390fd5b60025f600173ffffffffffffffffffffffffffffffffffffffff1673ffffffffffffffffffffffffffffffffffffffff1681526020019081526020015f205f9054906101000a900473ffffffffffffffffffffffffffffffffffffffff1660025f8473ffffffffffffffffffffffffffffffffffffffff1673ffffffffffffffffffffffffffffffffffffffff1681526020019081526020015f205f6101000a81548173ffffffffffffffffffffffffffffffffffffffff021916908373ffffffffffffffffffffffffffffffffffffffff1602179055508160025f600173ffffffffffffffffffffffffffffffffffffffff1673ffffffffffffffffffffffffffffffffffffffff1681526020019081526020015f205f6101000a81548173ffffffffffffffffffffffffffffffffffffffff021916908373ffffffffffffffffffffffffffffffffffffffff16021790555060035f815480929190610b7590615493565b91905055508173ffffffffffffffffffffffffffffffffffffffff167f9465fa0c962cc76958e6373a993326400c1c94f8be2fe3a952adfa7f60b2ea2660405160405180910390a28060045414610bd057610bcf81611953565b5b5050565b610be8604182613a0390919063ffffffff16565b82511015610c2b576040517f08c379a0000000000000000000000000000000000000000000000000000000008152600401610c2290615524565b60405180910390fd5b5f80805f805f5b868110156111e657610c448882613a43565b8094508195508296505050505f8460ff1603610edf5789898051906020012014610ca3576040517f08c379a0000000000000000000000000000000000000000000000000000000008152600401610c9a9061558c565b60405180910390fd5b825f1c9450610cbc604188613a0390919063ffffffff16565b825f1c1015610d00576040517f08c379a0000000000000000000000000000000000000000000000000000000008152600401610cf7906155f4565b60405180910390fd5b8751610d186020845f1c613a7090919063ffffffff16565b1115610d59576040517f08c379a0000000000000000000000000000000000000000000000000000000008152600401610d509061565c565b60405180910390fd5b5f6020838a01015190508851610d8d82610d7f6020875f1c613a7090919063ffffffff16565b613a7090919063ffffffff16565b1115610dce576040517f08c379a0000000000000000000000000000000000000000000000000000000008152600401610dc5906156c4565b60405180910390fd5b60606020848b010190506320c13b0b60e01b7bffffffffffffffffffffffffffffffffffffffffffffffffffffffff19168773ffffffffffffffffffffffffffffffffffffffff166320c13b0b8d846040518363ffffffff1660e01b8152600401610e3a9291906156e2565b602060405180830381865afa158015610e55573d5f803e3d5ffd5b505050506040513d601f19601f82011682018060405250810190610e79919061576c565b7bffffffffffffffffffffffffffffffffffffffffffffffffffffffff191614610ed8576040517f08c379a0000000000000000000000000000000000000000000000000000000008152600401610ecf906157e1565b60405180910390fd5b505061109b565b60018460ff1603610fb957825f1c94508473ffffffffffffffffffffffffffffffffffffffff163373ffffffffffffffffffffffffffffffffffffffff161480610f7557505f60085f8773ffffffffffffffffffffffffffffffffffffffff1673ffffffffffffffffffffffffffffffffffffffff1681526020019081526020015f205f8c81526020019081526020015f205414155b610fb4576040517f08c379a0000000000000000000000000000000000000000000000000000000008152600401610fab90615849565b60405180910390fd5b61109a565b601e8460ff16111561104a5760018a604051602001610fd891906158db565b60405160208183030381529060405280519060200120600486610ffb919061590c565b85856040515f8152602001604052604051611019949392919061594f565b6020604051602081039080840390855afa158015611039573d5f803e3d5ffd5b505050602060405103519450611099565b60018a8585856040515f815260200160405260405161106c949392919061594f565b6020604051602081039080840390855afa15801561108c573d5f803e3d5ffd5b5050506020604051035194505b5b5b8573ffffffffffffffffffffffffffffffffffffffff168573ffffffffffffffffffffffffffffffffffffffff1611801561115e57505f73ffffffffffffffffffffffffffffffffffffffff1660025f8773ffffffffffffffffffffffffffffffffffffffff1673ffffffffffffffffffffffffffffffffffffffff1681526020019081526020015f205f9054906101000a900473ffffffffffffffffffffffffffffffffffffffff1673ffffffffffffffffffffffffffffffffffffffff1614155b80156111975750600173ffffffffffffffffffffffffffffffffffffffff168573ffffffffffffffffffffffffffffffffffffffff1614155b6111d6576040517f08c379a00000000000000000000000000000000000000000000000000000000081526004016111cd906159dc565b60405180910390fd5b8495508080600101915050610c32565b50505050505050505050565b5f8173ffffffffffffffffffffffffffffffffffffffff16600173ffffffffffffffffffffffffffffffffffffffff16141580156112b857505f73ffffffffffffffffffffffffffffffffffffffff1660015f8473ffffffffffffffffffffffffffffffffffffffff1673ffffffffffffffffffffffffffffffffffffffff1681526020019081526020015f205f9054906101000a900473ffffffffffffffffffffffffffffffffffffffff1673ffffffffffffffffffffffffffffffffffffffff1614155b9050919050565b5f600173ffffffffffffffffffffffffffffffffffffffff168273ffffffffffffffffffffffffffffffffffffffff161415801561138557505f73ffffffffffffffffffffffffffffffffffffffff1660025f8473ffffffffffffffffffffffffffffffffffffffff1673ffffffffffffffffffffffffffffffffffffffff1681526020019081526020015f205f9054906101000a900473ffffffffffffffffffffffffffffffffffffffff1673ffffffffffffffffffffffffffffffffffffffff1614155b9050919050565b5f804690508091505090565b5f600173ffffffffffffffffffffffffffffffffffffffff163373ffffffffffffffffffffffffffffffffffffffff161415801561145e57505f73ffffffffffffffffffffffffffffffffffffffff1660015f3373ffffffffffffffffffffffffffffffffffffffff1673ffffffffffffffffffffffffffffffffffffffff1681526020019081526020015f205f9054906101000a900473ffffffffffffffffffffffffffffffffffffffff1673ffffffffffffffffffffffffffffffffffffffff1614155b61149d576040517f08c379a000000000000000000000000000000000000000000000000000000000815260040161149490615a44565b60405180910390fd5b6114ca858585857fffffffffffffffffffffffffffffffffffffffffffffffffffffffffffffffff613a96565b9050801561151a573373ffffffffffffffffffffffffffffffffffffffff167f6895c13664aa4f67288b25d7a21d7aaa34916e355fb9b6fae0a139a9085becb860405160405180910390a261155e565b3373ffffffffffffffffffffffffffffffffffffffff167facd2c8702804128fdb0db2bb49f6d127dd0181c13fd45dbfe16de0930e2bd37560405160405180910390a25b949350505050565b5f606061157586868686611398565b915060405160203d0181016040523d81523d5f602083013e8091505094509492505050565b60605f6020836115aa9190615a62565b67ffffffffffffffff8111156115c3576115c2614777565b5b6040519080825280601f01601f1916602001820160405280156115f55781602001600182028036833780820191505090505b5090505f5b8381101561161f578085015480602083026020850101525080806001019150506115fa565b508091505092915050565b6007602052805f5260405f205f915090505481565b611647613993565b5f73ffffffffffffffffffffffffffffffffffffffff168173ffffffffffffffffffffffffffffffffffffffff16141580156116b05750600173ffffffffffffffffffffffffffffffffffffffff168173ffffffffffffffffffffffffffffffffffffffff1614155b6116ef576040517f08c379a00000000000000000000000000000000000000000000000000000000081526004016116e690615aed565b60405180910390fd5b5f73ffffffffffffffffffffffffffffffffffffffff1660015f8373ffffffffffffffffffffffffffffffffffffffff1673ffffffffffffffffffffffffffffffffffffffff1681526020019081526020015f205f9054906101000a900473ffffffffffffffffffffffffffffffffffffffff1673ffffffffffffffffffffffffffffffffffffffff16146117b9576040517f08c379a00000000000000000000000000000000000000000000000000000000081526004016117b090615b55565b60405180910390fd5b60015f600173ffffffffffffffffffffffffffffffffffffffff1673ffffffffffffffffffffffffffffffffffffffff1681526020019081526020015f205f9054906101000a900473ffffffffffffffffffffffffffffffffffffffff1660015f8373ffffffffffffffffffffffffffffffffffffffff1673ffffffffffffffffffffffffffffffffffffffff1681526020019081526020015f205f6101000a81548173ffffffffffffffffffffffffffffffffffffffff021916908373ffffffffffffffffffffffffffffffffffffffff1602179055508060015f600173ffffffffffffffffffffffffffffffffffffffff1673ffffffffffffffffffffffffffffffffffffffff1681526020019081526020015f205f6101000a81548173ffffffffffffffffffffffffffffffffffffffff021916908373ffffffffffffffffffffffffffffffffffffffff1602179055508073ffffffffffffffffffffffffffffffffffffffff167fecdf3a3effea5783a3c4c2140e677577666428d44ed9d474a0b3a4c9943f844060405160405180910390a250565b61195b613993565b6003548111156119a0576040517f08c379a000000000000000000000000000000000000000000000000000000000815260040161199790615bbd565b60405180910390fd5b60018110156119e4576040517f08c379a00000000000000000000000000000000000000000000000000000000081526004016119db90615c25565b60405180910390fd5b806004819055507f610f7ff2b304ae8903c3de74c60c6ab1f7d6226b3f52c5161905bb5ad4039c93600454604051611a1c9190614640565b60405180910390a150565b5f805f611a3f8e8e8e8e8e8e8e8e8e8e60055461345a565b905060055f815480929190611a5390615493565b919050555080805190602001209150611a6d828286612222565b505f611a77613aec565b90505f73ffffffffffffffffffffffffffffffffffffffff168173ffffffffffffffffffffffffffffffffffffffff1614611b29578073ffffffffffffffffffffffffffffffffffffffff166375f0bb528f8f8f8f8f8f8f8f8f8f8f336040518d63ffffffff1660e01b8152600401611afb9c9b9a99989796959493929190615cf1565b5f604051808303815f87803b158015611b12575f80fd5b505af1158015611b24573d5f803e3d5ffd5b505050505b6101f4611b646109c48b611b3d9190615daa565b603f60408d611b4c9190615a62565b611b569190615e0a565b613b1b90919063ffffffff16565b611b6e9190615daa565b5a1015611bb0576040517f08c379a0000000000000000000000000000000000000000000000000000000008152600401611ba790615e84565b60405180910390fd5b5f5a9050611c1f8f8f8f8f8080601f0160208091040260200160405190810160405280939291908181526020018383808284375f81840152601f19601f820116905080830192505050505050508e5f8d14611c0b578e611c1a565b6109c45a611c199190615ea2565b5b613a96565b9350611c345a82613b3490919063ffffffff16565b90508380611c4257505f8a14155b80611c4d57505f8814155b611c8c576040517f08c379a0000000000000000000000000000000000000000000000000000000008152600401611c8390615f1f565b60405180910390fd5b5f80891115611ca557611ca2828b8b8b8b613b5a565b90505b8415611ce857837f442e715f626346e8c54381002da614f62bee8d27386535b2521ec8540898556e82604051611cdb9190614640565b60405180910390a2611d21565b837f23428b18acfb3ea64b08dc0c1d296ea9c09702c09083ca5272e64d115b687d2382604051611d189190614640565b60405180910390a25b50505f73ffffffffffffffffffffffffffffffffffffffff168173ffffffffffffffffffffffffffffffffffffffff1614611dbf578073ffffffffffffffffffffffffffffffffffffffff16639327136883856040518363ffffffff1660e01b8152600401611d91929190615f3d565b5f604051808303815f87803b158015611da8575f80fd5b505af1158015611dba573d5f803e3d5ffd5b505050505b50509b9a5050505050505050505050565b6008602052815f5260405f20602052805f5260405f205f91509150505481565b5f80825f016020810190611e049190614937565b90505f836020013590505f848060400190611e1f9190615f70565b8080601f0160208091040260200160405190810160405280939291908181526020018383808284375f81840152601f19601f8201169050808301925050505050505090505f856060016020810190611e779190615ffc565b90505f866080013590505f8760a0013590505f8860c0013590505f8960e0016020810190611ea59190614937565b90505f8a610100016020810190611ebc9190614937565b90505f8b610120013590505f611ed0613aec565b90505f73ffffffffffffffffffffffffffffffffffffffff168173ffffffffffffffffffffffffffffffffffffffff1614611f93578073ffffffffffffffffffffffffffffffffffffffff166375f0bb528c8c8c8c60ff166001811115611f3a57611f39615c6f565b5b8c8c8c8c8c336040518b63ffffffff1660e01b8152600401611f659a9998979695949392919061604a565b5f604051808303815f87803b158015611f7c575f80fd5b505af1158015611f8e573d5f803e3d5ffd5b505050505b60055f815480929190611fa590615493565b919050558214611fd957611fd87f4753303234000000000000000000000000000000000000000000000000000000613cf5565b5b6101f46109c488611fea9190615daa565b603f60068a901b611ffb9190615e0a565b11612013576109c48861200e9190615daa565b612025565b603f600689901b6120249190615e0a565b5b61202f9190615daa565b5a10156120605761205f7f4753303130000000000000000000000000000000000000000000000000000000613cf5565b5b5f5a90506120a18c8c8c8c60ff1660018111156120805761207f615c6f565b5b5f8b1461208d578c61209c565b6109c45a61209b9190615ea2565b5b613a96565b9c505a816120af9190615ea2565b90508c1580156120be57505f88145b80156120c957505f86145b156120d9576040513d5f823e3d81fd5b5f808711156120f2576120ef8289898989613d34565b90505b8d15612137575f801b7f442e715f626346e8c54381002da614f62bee8d27386535b2521ec8540898556e8260405161212a9190614640565b60405180910390a2612172565b5f801b7f23428b18acfb3ea64b08dc0c1d296ea9c09702c09083ca5272e64d115b687d23826040516121699190614640565b60405180910390a25b50505f73ffffffffffffffffffffffffffffffffffffffff168173ffffffffffffffffffffffffffffffffffffffff1614612212578073ffffffffffffffffffffffffffffffffffffffff1663932713685f801b8e6040518363ffffffff1660e01b81526004016121e4929190615f3d565b5f604051808303815f87803b1580156121fb575f80fd5b505af115801561220d573d5f803e3d5ffd5b505050505b5050505050505050505050919050565b5f60045490505f811161226a576040517f08c379a000000000000000000000000000000000000000000000000000000000815260040161226190616149565b60405180910390fd5b61227684848484610bd4565b50505050565b60605f60035467ffffffffffffffff81111561229b5761229a614777565b5b6040519080825280602002602001820160405280156122c95781602001602082028036833780820191505090505b5090505f8060025f600173ffffffffffffffffffffffffffffffffffffffff1673ffffffffffffffffffffffffffffffffffffffff1681526020019081526020015f205f9054906101000a900473ffffffffffffffffffffffffffffffffffffffff1690505b600173ffffffffffffffffffffffffffffffffffffffff168173ffffffffffffffffffffffffffffffffffffffff1614612423578083838151811061237757612376616167565b5b602002602001019073ffffffffffffffffffffffffffffffffffffffff16908173ffffffffffffffffffffffffffffffffffffffff168152505060025f8273ffffffffffffffffffffffffffffffffffffffff1673ffffffffffffffffffffffffffffffffffffffff1681526020019081526020015f205f9054906101000a900473ffffffffffffffffffffffffffffffffffffffff169050818061241b90615493565b92505061232f565b82935050505090565b60055481565b5f80825160208401855af4805f523d6020523d5f60403e60403d015ffd5b61249a8a8a808060200260200160405190810160405280939291908181526020018383602002808284375f81840152601f19601f8201169050808301925050505050505089613ead565b5f73ffffffffffffffffffffffffffffffffffffffff168473ffffffffffffffffffffffffffffffffffffffff16146124d7576124d6846142a6565b5b6125248787878080601f0160208091040260200160405190810160405280939291908181526020018383808284375f81840152601f19601f82011690508083019250505050505050614341565b5f82111561253c5761253a825f60018685613b5a565b505b3373ffffffffffffffffffffffffffffffffffffffff167f141df868a6331af528e38c83b7aa03edc19be66e37ae67f9285bf4f8e3c6a1a88b8b8b8b8960405161258a95949392919061621a565b60405180910390a250505050505050505050565b60605f600173ffffffffffffffffffffffffffffffffffffffff168473ffffffffffffffffffffffffffffffffffffffff1614806125e157506125e0846111f2565b5b612620576040517f08c379a0000000000000000000000000000000000000000000000000000000008152600401612617906162b0565b60405180910390fd5b5f8311612662576040517f08c379a000000000000000000000000000000000000000000000000000000000815260040161265990616318565b60405180910390fd5b8267ffffffffffffffff81111561267c5761267b614777565b5b6040519080825280602002602001820160405280156126aa5781602001602082028036833780820191505090505b5091505f60015f8673ffffffffffffffffffffffffffffffffffffffff1673ffffffffffffffffffffffffffffffffffffffff1681526020019081526020015f205f9054906101000a900473ffffffffffffffffffffffffffffffffffffffff1691505b5f73ffffffffffffffffffffffffffffffffffffffff168273ffffffffffffffffffffffffffffffffffffffff16141580156127775750600173ffffffffffffffffffffffffffffffffffffffff168273ffffffffffffffffffffffffffffffffffffffff1614155b801561278257508381105b15612847578183828151811061279b5761279a616167565b5b602002602001019073ffffffffffffffffffffffffffffffffffffffff16908173ffffffffffffffffffffffffffffffffffffffff168152505060015f8373ffffffffffffffffffffffffffffffffffffffff1673ffffffffffffffffffffffffffffffffffffffff1681526020019081526020015f205f9054906101000a900473ffffffffffffffffffffffffffffffffffffffff169150808061283f90615493565b91505061270e565b600173ffffffffffffffffffffffffffffffffffffffff168273ffffffffffffffffffffffffffffffffffffffff16146128a557826001826128899190615ea2565b8151811061289a57612899616167565b5b602002602001015191505b808352509250929050565b5f73ffffffffffffffffffffffffffffffffffffffff1660025f3373ffffffffffffffffffffffffffffffffffffffff1673ffffffffffffffffffffffffffffffffffffffff1681526020019081526020015f205f9054906101000a900473ffffffffffffffffffffffffffffffffffffffff1673ffffffffffffffffffffffffffffffffffffffff160361297a576040517f08c379a000000000000000000000000000000000000000000000000000000000815260040161297190616380565b60405180910390fd5b600160085f3373ffffffffffffffffffffffffffffffffffffffff1673ffffffffffffffffffffffffffffffffffffffff1681526020019081526020015f205f8381526020019081526020015f20819055503373ffffffffffffffffffffffffffffffffffffffff16817ff2a0eb156472d1440255b0d7c1e19cc07115d1051fe605b0dce69acfec884d9c60405160405180910390a350565b5f612a278c8c8c8c8c8c8c8c8c8c8c61345a565b8051906020012090509b9a5050505050505050505050565b612a47613993565b5f73ffffffffffffffffffffffffffffffffffffffff168173ffffffffffffffffffffffffffffffffffffffff1614158015612ab05750600173ffffffffffffffffffffffffffffffffffffffff168173ffffffffffffffffffffffffffffffffffffffff1614155b612aef576040517f08c379a0000000000000000000000000000000000000000000000000000000008152600401612ae690615aed565b60405180910390fd5b8073ffffffffffffffffffffffffffffffffffffffff1660015f8473ffffffffffffffffffffffffffffffffffffffff1673ffffffffffffffffffffffffffffffffffffffff1681526020019081526020015f205f9054906101000a900473ffffffffffffffffffffffffffffffffffffffff1673ffffffffffffffffffffffffffffffffffffffff1614612bb9576040517f08c379a0000000000000000000000000000000000000000000000000000000008152600401612bb0906163e8565b60405180910390fd5b60015f8273ffffffffffffffffffffffffffffffffffffffff1673ffffffffffffffffffffffffffffffffffffffff1681526020019081526020015f205f9054906101000a900473ffffffffffffffffffffffffffffffffffffffff1660015f8473ffffffffffffffffffffffffffffffffffffffff1673ffffffffffffffffffffffffffffffffffffffff1681526020019081526020015f205f6101000a81548173ffffffffffffffffffffffffffffffffffffffff021916908373ffffffffffffffffffffffffffffffffffffffff1602179055505f60015f8373ffffffffffffffffffffffffffffffffffffffff1673ffffffffffffffffffffffffffffffffffffffff1681526020019081526020015f205f6101000a81548173ffffffffffffffffffffffffffffffffffffffff021916908373ffffffffffffffffffffffffffffffffffffffff1602179055508073ffffffffffffffffffffffffffffffffffffffff167faab4fa2b463f581b2b32cb3b7e3b704b9ce37cc209b5fb4d77e593ace405427660405160405180910390a25050565b612d5a613993565b5f73ffffffffffffffffffffffffffffffffffffffff168173ffffffffffffffffffffffffffffffffffffffff1614612e65578073ffffffffffffffffffffffffffffffffffffffff166301ffc9a77fe6d7a83a000000000000000000000000000000000000000000000000000000006040518263ffffffff1660e01b8152600401612de69190616415565b602060405180830381865afa158015612e01573d5f803e3d5ffd5b505050506040513d601f19601f82011682018060405250810190612e259190616458565b612e64576040517f08c379a0000000000000000000000000000000000000000000000000000000008152600401612e5b906164cd565b60405180910390fd5b5b5f7f4a204f620c8c5ccdca3fd54d003badd85ba500436a431f0cbda4f558c93c34c85f1b90508181558173ffffffffffffffffffffffffffffffffffffffff167f1151116914515bc0891ff9047a6cb32cf902546f83066499bcf8ba33d2353fa260405160405180910390a25050565b612edd613993565b5f73ffffffffffffffffffffffffffffffffffffffff168173ffffffffffffffffffffffffffffffffffffffff1614158015612f465750600173ffffffffffffffffffffffffffffffffffffffff168173ffffffffffffffffffffffffffffffffffffffff1614155b8015612f7e57503073ffffffffffffffffffffffffffffffffffffffff168173ffffffffffffffffffffffffffffffffffffffff1614155b612fbd576040517f08c379a0000000000000000000000000000000000000000000000000000000008152600401612fb4906153e0565b60405180910390fd5b5f73ffffffffffffffffffffffffffffffffffffffff1660025f8373ffffffffffffffffffffffffffffffffffffffff1673ffffffffffffffffffffffffffffffffffffffff1681526020019081526020015f205f9054906101000a900473ffffffffffffffffffffffffffffffffffffffff1673ffffffffffffffffffffffffffffffffffffffff1614613087576040517f08c379a000000000000000000000000000000000000000000000000000000000815260040161307e90615448565b60405180910390fd5b5f73ffffffffffffffffffffffffffffffffffffffff168273ffffffffffffffffffffffffffffffffffffffff16141580156130f05750600173ffffffffffffffffffffffffffffffffffffffff168273ffffffffffffffffffffffffffffffffffffffff1614155b61312f576040517f08c379a0000000000000000000000000000000000000000000000000000000008152600401613126906153e0565b60405180910390fd5b8173ffffffffffffffffffffffffffffffffffffffff1660025f8573ffffffffffffffffffffffffffffffffffffffff1673ffffffffffffffffffffffffffffffffffffffff1681526020019081526020015f205f9054906101000a900473ffffffffffffffffffffffffffffffffffffffff1673ffffffffffffffffffffffffffffffffffffffff16146131f9576040517f08c379a00000000000000000000000000000000000000000000000000000000081526004016131f090616535565b60405180910390fd5b60025f8373ffffffffffffffffffffffffffffffffffffffff1673ffffffffffffffffffffffffffffffffffffffff1681526020019081526020015f205f9054906101000a900473ffffffffffffffffffffffffffffffffffffffff1660025f8373ffffffffffffffffffffffffffffffffffffffff1673ffffffffffffffffffffffffffffffffffffffff1681526020019081526020015f205f6101000a81548173ffffffffffffffffffffffffffffffffffffffff021916908373ffffffffffffffffffffffffffffffffffffffff1602179055508060025f8573ffffffffffffffffffffffffffffffffffffffff1673ffffffffffffffffffffffffffffffffffffffff1681526020019081526020015f205f6101000a81548173ffffffffffffffffffffffffffffffffffffffff021916908373ffffffffffffffffffffffffffffffffffffffff1602179055505f60025f8473ffffffffffffffffffffffffffffffffffffffff1673ffffffffffffffffffffffffffffffffffffffff1681526020019081526020015f205f6101000a81548173ffffffffffffffffffffffffffffffffffffffff021916908373ffffffffffffffffffffffffffffffffffffffff1602179055508173ffffffffffffffffffffffffffffffffffffffff167ff8d49fc529812e9a7c5c50e69c20f0dccc0db8fa95c98bc58cc9a4f1c1299eaf60405160405180910390a28073ffffffffffffffffffffffffffffffffffffffff167f9465fa0c962cc76958e6373a993326400c1c94f8be2fe3a952adfa7f60b2ea2660405160405180910390a2505050565b5f600454905090565b60605f7fbb8310d486368db6bd6f849402fdd73ad53d316b5a4b2644ad6efe0f941286d85f1b8d8d8d8d604051613492929190616581565b60405180910390208c8c8c8c8c8c8c6040516020016134bb9b9a99989796959493929190616599565b604051602081830303815290604052805190602001209050601960f81b600160f81b6134e5613571565b836040516020016134f9949392919061668d565b6040516020818303038152906040529150509b9a5050505050505050505050565b613522613993565b61352b816142a6565b8073ffffffffffffffffffffffffffffffffffffffff167f5ac6c46c93c8d0e53714ba3b53db3e7c046da994313d7ed0d192028bc7c228b060405160405180910390a250565b5f7f47e79534a245952e8b16893a336b85a3d9ea9fa8c573f3d803afb92a794692185f1b61359d61138c565b306040516020016135b093929190616735565b60405160208183030381529060405280519060200120905090565b6135d3613993565b8060016003546135e39190615ea2565b1015613624576040517f08c379a000000000000000000000000000000000000000000000000000000000815260040161361b90615bbd565b60405180910390fd5b5f73ffffffffffffffffffffffffffffffffffffffff168273ffffffffffffffffffffffffffffffffffffffff161415801561368d5750600173ffffffffffffffffffffffffffffffffffffffff168273ffffffffffffffffffffffffffffffffffffffff1614155b6136cc576040517f08c379a00000000000000000000000000000000000000000000000000000000081526004016136c3906153e0565b60405180910390fd5b8173ffffffffffffffffffffffffffffffffffffffff1660025f8573ffffffffffffffffffffffffffffffffffffffff1673ffffffffffffffffffffffffffffffffffffffff1681526020019081526020015f205f9054906101000a900473ffffffffffffffffffffffffffffffffffffffff1673ffffffffffffffffffffffffffffffffffffffff1614613796576040517f08c379a000000000000000000000000000000000000000000000000000000000815260040161378d90616535565b60405180910390fd5b60025f8373ffffffffffffffffffffffffffffffffffffffff1673ffffffffffffffffffffffffffffffffffffffff1681526020019081526020015f205f9054906101000a900473ffffffffffffffffffffffffffffffffffffffff1660025f8573ffffffffffffffffffffffffffffffffffffffff1673ffffffffffffffffffffffffffffffffffffffff1681526020019081526020015f205f6101000a81548173ffffffffffffffffffffffffffffffffffffffff021916908373ffffffffffffffffffffffffffffffffffffffff1602179055505f60025f8473ffffffffffffffffffffffffffffffffffffffff1673ffffffffffffffffffffffffffffffffffffffff1681526020019081526020015f205f6101000a81548173ffffffffffffffffffffffffffffffffffffffff021916908373ffffffffffffffffffffffffffffffffffffffff16021790555060035f8154809291906138fa9061676a565b91905055508173ffffffffffffffffffffffffffffffffffffffff167ff8d49fc529812e9a7c5c50e69c20f0dccc0db8fa95c98bc58cc9a4f1c1299eaf60405160405180910390a280600454146139555761395481611953565b5b505050565b6040518060400160405280600581526020017f312e342e3100000000000000000000000000000000000000000000000000000081525081565b3073ffffffffffffffffffffffffffffffffffffffff163373ffffffffffffffffffffffffffffffffffffffff1614613a01576040517f08c379a00000000000000000000000000000000000000000000000000000000081526004016139f8906167db565b60405180910390fd5b565b5f808303613a13575f9050613a3d565b5f8284613a209190615a62565b9050828482613a2f9190615e0a565b14613a38575f80fd5b809150505b92915050565b5f805f8360410260208101860151925060408101860151915060ff60418201870151169350509250925092565b5f808284613a7e9190615daa565b905083811015613a8c575f80fd5b8091505092915050565b5f600180811115613aaa57613aa9615c6f565b5b836001811115613abd57613abc615c6f565b5b03613ad4575f808551602087018986f49050613ae3565b5f80855160208701888a87f190505b95945050505050565b5f807f4a204f620c8c5ccdca3fd54d003badd85ba500436a431f0cbda4f558c93c34c85f1b9050805491505090565b5f81831015613b2a5781613b2c565b825b905092915050565b5f82821115613b41575f80fd5b5f8284613b4e9190615ea2565b90508091505092915050565b5f805f73ffffffffffffffffffffffffffffffffffffffff168373ffffffffffffffffffffffffffffffffffffffff1614613b955782613b97565b325b90505f73ffffffffffffffffffffffffffffffffffffffff168473ffffffffffffffffffffffffffffffffffffffff1603613c7957613bff3a8610613bdc573a613bde565b855b613bf1888a613a7090919063ffffffff16565b613a0390919063ffffffff16565b91508073ffffffffffffffffffffffffffffffffffffffff166108fc8390811502906040515f60405180830381858888f19350505050613c74576040517f08c379a0000000000000000000000000000000000000000000000000000000008152600401613c6b90616843565b60405180910390fd5b613ceb565b613c9e85613c90888a613a7090919063ffffffff16565b613a0390919063ffffffff16565b9150613cab848284614575565b613cea576040517f08c379a0000000000000000000000000000000000000000000000000000000008152600401613ce1906168ab565b60405180910390fd5b5b5095945050505050565b6040517f08c379a00000000000000000000000000000000000000000000000000000000081526020600482015260056024820152816044820152606481fd5b5f805f73ffffffffffffffffffffffffffffffffffffffff168373ffffffffffffffffffffffffffffffffffffffff1614613d6f5782613d71565b325b90505f73ffffffffffffffffffffffffffffffffffffffff168473ffffffffffffffffffffffffffffffffffffffff1603613e4257613dd93a8610613db6573a613db8565b855b613dcb888a613a7090919063ffffffff16565b613a0390919063ffffffff16565b91508073ffffffffffffffffffffffffffffffffffffffff166108fc8390811502906040515f60405180830381858888f19350505050613e3d57613e3c7f4753303131000000000000000000000000000000000000000000000000000000613cf5565b5b613ea3565b613e6785613e59888a613a7090919063ffffffff16565b613a0390919063ffffffff16565b9150613e74848284614575565b613ea257613ea17f4753303132000000000000000000000000000000000000000000000000000000613cf5565b5b5b5095945050505050565b5f60045414613ef1576040517f08c379a0000000000000000000000000000000000000000000000000000000008152600401613ee890616913565b60405180910390fd5b8151811115613f35576040517f08c379a0000000000000000000000000000000000000000000000000000000008152600401613f2c90615bbd565b60405180910390fd5b6001811015613f79576040517f08c379a0000000000000000000000000000000000000000000000000000000008152600401613f7090615c25565b60405180910390fd5b5f600190505f5b8351811015614215575f848281518110613f9d57613f9c616167565b5b602002602001015190505f73ffffffffffffffffffffffffffffffffffffffff168173ffffffffffffffffffffffffffffffffffffffff16141580156140105750600173ffffffffffffffffffffffffffffffffffffffff168173ffffffffffffffffffffffffffffffffffffffff1614155b801561404857503073ffffffffffffffffffffffffffffffffffffffff168173ffffffffffffffffffffffffffffffffffffffff1614155b801561408057508073ffffffffffffffffffffffffffffffffffffffff168373ffffffffffffffffffffffffffffffffffffffff1614155b6140bf576040517f08c379a00000000000000000000000000000000000000000000000000000000081526004016140b6906153e0565b60405180910390fd5b5f73ffffffffffffffffffffffffffffffffffffffff1660025f8373ffffffffffffffffffffffffffffffffffffffff1673ffffffffffffffffffffffffffffffffffffffff1681526020019081526020015f205f9054906101000a900473ffffffffffffffffffffffffffffffffffffffff1673ffffffffffffffffffffffffffffffffffffffff1614614189576040517f08c379a000000000000000000000000000000000000000000000000000000000815260040161418090615448565b60405180910390fd5b8060025f8573ffffffffffffffffffffffffffffffffffffffff1673ffffffffffffffffffffffffffffffffffffffff1681526020019081526020015f205f6101000a81548173ffffffffffffffffffffffffffffffffffffffff021916908373ffffffffffffffffffffffffffffffffffffffff160217905550809250508080600101915050613f80565b50600160025f8373ffffffffffffffffffffffffffffffffffffffff1673ffffffffffffffffffffffffffffffffffffffff1681526020019081526020015f205f6101000a81548173ffffffffffffffffffffffffffffffffffffffff021916908373ffffffffffffffffffffffffffffffffffffffff160217905550825160038190555081600481905550505050565b3073ffffffffffffffffffffffffffffffffffffffff168173ffffffffffffffffffffffffffffffffffffffff1603614314576040517f08c379a000000000000000000000000000000000000000000000000000000000815260040161430b9061697b565b60405180910390fd5b5f7f6c9a6c4a39284e37ed1cf53d337577d14212a4870fb976a4366c693b939918d55f1b90508181555050565b5f73ffffffffffffffffffffffffffffffffffffffff1660015f600173ffffffffffffffffffffffffffffffffffffffff1673ffffffffffffffffffffffffffffffffffffffff1681526020019081526020015f205f9054906101000a900473ffffffffffffffffffffffffffffffffffffffff1673ffffffffffffffffffffffffffffffffffffffff161461440c576040517f08c379a0000000000000000000000000000000000000000000000000000000008152600401614403906169e3565b60405180910390fd5b6001805f600173ffffffffffffffffffffffffffffffffffffffff1673ffffffffffffffffffffffffffffffffffffffff1681526020019081526020015f205f6101000a81548173ffffffffffffffffffffffffffffffffffffffff021916908373ffffffffffffffffffffffffffffffffffffffff1602179055505f73ffffffffffffffffffffffffffffffffffffffff168273ffffffffffffffffffffffffffffffffffffffff1614614571576144c482614617565b614503576040517f08c379a00000000000000000000000000000000000000000000000000000000081526004016144fa90616a4b565b60405180910390fd5b614531825f8360017fffffffffffffffffffffffffffffffffffffffffffffffffffffffffffffffff613a96565b614570576040517f08c379a000000000000000000000000000000000000000000000000000000000815260040161456790616ab3565b60405180910390fd5b5b5050565b5f8063a9059cbb848460405160240161458f929190616ad1565b6040516020818303038152906040529060e01b6020820180517bffffffffffffffffffffffffffffffffffffffffffffffffffffffff8381831617835250505050905060205f8251602084015f896127105a03f13d5f81146145fb5760208114614603575f935061460d565b81935061460d565b5f51158215171593505b5050509392505050565b5f80823b90505f8111915050919050565b5f819050919050565b61463a81614628565b82525050565b5f6020820190506146535f830184614631565b92915050565b5f604051905090565b5f80fd5b5f80fd5b5f73ffffffffffffffffffffffffffffffffffffffff82169050919050565b5f6146938261466a565b9050919050565b6146a381614689565b81146146ad575f80fd5b50565b5f813590506146be8161469a565b92915050565b6146cd81614628565b81146146d7575f80fd5b50565b5f813590506146e8816146c4565b92915050565b5f806040838503121561470457614703614662565b5b5f614711858286016146b0565b9250506020614722858286016146da565b9150509250929050565b5f819050919050565b61473e8161472c565b8114614748575f80fd5b50565b5f8135905061475981614735565b92915050565b5f80fd5b5f80fd5b5f601f19601f8301169050919050565b7f4e487b71000000000000000000000000000000000000000000000000000000005f52604160045260245ffd5b6147ad82614767565b810181811067ffffffffffffffff821117156147cc576147cb614777565b5b80604052505050565b5f6147de614659565b90506147ea82826147a4565b919050565b5f67ffffffffffffffff82111561480957614808614777565b5b61481282614767565b9050602081019050919050565b828183375f83830152505050565b5f61483f61483a846147ef565b6147d5565b90508281526020810184848401111561485b5761485a614763565b5b61486684828561481f565b509392505050565b5f82601f8301126148825761488161475f565b5b813561489284826020860161482d565b91505092915050565b5f805f80608085870312156148b3576148b2614662565b5b5f6148c08782880161474b565b945050602085013567ffffffffffffffff8111156148e1576148e0614666565b5b6148ed8782880161486e565b935050604085013567ffffffffffffffff81111561490e5761490d614666565b5b61491a8782880161486e565b925050606061492b878288016146da565b91505092959194509250565b5f6020828403121561494c5761494b614662565b5b5f614959848285016146b0565b91505092915050565b5f8115159050919050565b61497681614962565b82525050565b5f60208201905061498f5f83018461496d565b92915050565b600281106149a1575f80fd5b50565b5f813590506149b281614995565b92915050565b5f805f80608085870312156149d0576149cf614662565b5b5f6149dd878288016146b0565b94505060206149ee878288016146da565b935050604085013567ffffffffffffffff811115614a0f57614a0e614666565b5b614a1b8782880161486e565b9250506060614a2c878288016149a4565b91505092959194509250565b5f81519050919050565b5f82825260208201905092915050565b5f5b83811015614a6f578082015181840152602081019050614a54565b5f8484015250505050565b5f614a8482614a38565b614a8e8185614a42565b9350614a9e818560208601614a52565b614aa781614767565b840191505092915050565b5f604082019050614ac55f83018561496d565b8181036020830152614ad78184614a7a565b90509392505050565b5f8060408385031215614af657614af5614662565b5b5f614b03858286016146da565b9250506020614b14858286016146da565b9150509250929050565b5f6020820190508181035f830152614b368184614a7a565b905092915050565b5f60208284031215614b5357614b52614662565b5b5f614b608482850161474b565b91505092915050565b5f60208284031215614b7e57614b7d614662565b5b5f614b8b848285016146da565b91505092915050565b5f80fd5b5f80fd5b5f8083601f840112614bb157614bb061475f565b5b8235905067ffffffffffffffff811115614bce57614bcd614b94565b5b602083019150836001820283011115614bea57614be9614b98565b5b9250929050565b5f614bfb8261466a565b9050919050565b614c0b81614bf1565b8114614c15575f80fd5b50565b5f81359050614c2681614c02565b92915050565b5f805f805f805f805f805f6101408c8e031215614c4c57614c4b614662565b5b5f614c598e828f016146b0565b9b50506020614c6a8e828f016146da565b9a505060408c013567ffffffffffffffff811115614c8b57614c8a614666565b5b614c978e828f01614b9c565b99509950506060614caa8e828f016149a4565b9750506080614cbb8e828f016146da565b96505060a0614ccc8e828f016146da565b95505060c0614cdd8e828f016146da565b94505060e0614cee8e828f016146b0565b935050610100614d008e828f01614c18565b9250506101208c013567ffffffffffffffff811115614d2257614d21614666565b5b614d2e8e828f0161486e565b9150509295989b509295989b9093969950565b5f8060408385031215614d5757614d56614662565b5b5f614d64858286016146b0565b9250506020614d758582860161474b565b9150509250929050565b5f80fd5b5f6101408284031215614d9957614d98614d7f565b5b81905092915050565b5f60208284031215614db757614db6614662565b5b5f82013567ffffffffffffffff811115614dd457614dd3614666565b5b614de084828501614d83565b91505092915050565b5f805f60608486031215614e0057614dff614662565b5b5f614e0d8682870161474b565b935050602084013567ffffffffffffffff811115614e2e57614e2d614666565b5b614e3a8682870161486e565b925050604084013567ffffffffffffffff811115614e5b57614e5a614666565b5b614e678682870161486e565b9150509250925092565b5f81519050919050565b5f82825260208201905092915050565b5f819050602082019050919050565b614ea381614689565b82525050565b5f614eb48383614e9a565b60208301905092915050565b5f602082019050919050565b5f614ed682614e71565b614ee08185614e7b565b9350614eeb83614e8b565b805f5b83811015614f1b578151614f028882614ea9565b9750614f0d83614ec0565b925050600181019050614eee565b5085935050505092915050565b5f6020820190508181035f830152614f408184614ecc565b905092915050565b5f8060408385031215614f5e57614f5d614662565b5b5f614f6b858286016146b0565b925050602083013567ffffffffffffffff811115614f8c57614f8b614666565b5b614f988582860161486e565b9150509250929050565b5f8083601f840112614fb757614fb661475f565b5b8235905067ffffffffffffffff811115614fd457614fd3614b94565b5b602083019150836020820283011115614ff057614fef614b98565b5b9250929050565b5f805f805f805f805f806101008b8d03121561501657615015614662565b5b5f8b013567ffffffffffffffff81111561503357615032614666565b5b61503f8d828e01614fa2565b9a509a505060206150528d828e016146da565b98505060406150638d828e016146b0565b97505060608b013567ffffffffffffffff81111561508457615083614666565b5b6150908d828e01614b9c565b965096505060806150a38d828e016146b0565b94505060a06150b48d828e016146b0565b93505060c06150c58d828e016146da565b92505060e06150d68d828e01614c18565b9150509295989b9194979a5092959850565b6150f181614689565b82525050565b5f6040820190508181035f83015261510f8185614ecc565b905061511e60208301846150e8565b9392505050565b5f805f805f805f805f805f6101408c8e03121561514557615144614662565b5b5f6151528e828f016146b0565b9b505060206151638e828f016146da565b9a505060408c013567ffffffffffffffff81111561518457615183614666565b5b6151908e828f01614b9c565b995099505060606151a38e828f016149a4565b97505060806151b48e828f016146da565b96505060a06151c58e828f016146da565b95505060c06151d68e828f016146da565b94505060e06151e78e828f016146b0565b9350506101006151f98e828f016146b0565b92505061012061520b8e828f016146da565b9150509295989b509295989b9093969950565b6152278161472c565b82525050565b5f6020820190506152405f83018461521e565b92915050565b5f806040838503121561525c5761525b614662565b5b5f615269858286016146b0565b925050602061527a858286016146b0565b9150509250929050565b5f805f6060848603121561529b5761529a614662565b5b5f6152a8868287016146b0565b93505060206152b9868287016146b0565b92505060406152ca868287016146b0565b9150509250925092565b5f805f606084860312156152eb576152ea614662565b5b5f6152f8868287016146b0565b9350506020615309868287016146b0565b925050604061531a868287016146da565b9150509250925092565b5f81519050919050565b5f82825260208201905092915050565b5f61534882615324565b615352818561532e565b9350615362818560208601614a52565b61536b81614767565b840191505092915050565b5f6020820190508181035f83015261538e818461533e565b905092915050565b7f47533230330000000000000000000000000000000000000000000000000000005f82015250565b5f6153ca60058361532e565b91506153d582615396565b602082019050919050565b5f6020820190508181035f8301526153f7816153be565b9050919050565b7f47533230340000000000000000000000000000000000000000000000000000005f82015250565b5f61543260058361532e565b915061543d826153fe565b602082019050919050565b5f6020820190508181035f83015261545f81615426565b9050919050565b7f4e487b71000000000000000000000000000000000000000000000000000000005f52601160045260245ffd5b5f61549d82614628565b91507fffffffffffffffffffffffffffffffffffffffffffffffffffffffffffffffff82036154cf576154ce615466565b5b600182019050919050565b7f47533032300000000000000000000000000000000000000000000000000000005f82015250565b5f61550e60058361532e565b9150615519826154da565b602082019050919050565b5f6020820190508181035f83015261553b81615502565b9050919050565b7f47533032370000000000000000000000000000000000000000000000000000005f82015250565b5f61557660058361532e565b915061558182615542565b602082019050919050565b5f6020820190508181035f8301526155a38161556a565b9050919050565b7f47533032310000000000000000000000000000000000000000000000000000005f82015250565b5f6155de60058361532e565b91506155e9826155aa565b602082019050919050565b5f6020820190508181035f83015261560b816155d2565b9050919050565b7f47533032320000000000000000000000000000000000000000000000000000005f82015250565b5f61564660058361532e565b915061565182615612565b602082019050919050565b5f6020820190508181035f8301526156738161563a565b9050919050565b7f47533032330000000000000000000000000000000000000000000000000000005f82015250565b5f6156ae60058361532e565b91506156b98261567a565b602082019050919050565b5f6020820190508181035f8301526156db816156a2565b9050919050565b5f6040820190508181035f8301526156fa8185614a7a565b9050818103602083015261570e8184614a7a565b90509392505050565b5f7fffffffff0000000000000000000000000000000000000000000000000000000082169050919050565b61574b81615717565b8114615755575f80fd5b50565b5f8151905061576681615742565b92915050565b5f6020828403121561578157615780614662565b5b5f61578e84828501615758565b91505092915050565b7f47533032340000000000000000000000000000000000000000000000000000005f82015250565b5f6157cb60058361532e565b91506157d682615797565b602082019050919050565b5f6020820190508181035f8301526157f8816157bf565b9050919050565b7f47533032350000000000000000000000000000000000000000000000000000005f82015250565b5f61583360058361532e565b915061583e826157ff565b602082019050919050565b5f6020820190508181035f83015261586081615827565b9050919050565b5f81905092915050565b7f19457468657265756d205369676e6564204d6573736167653a0a3332000000005f82015250565b5f6158a5601c83615867565b91506158b082615871565b601c82019050919050565b5f819050919050565b6158d56158d08261472c565b6158bb565b82525050565b5f6158e582615899565b91506158f182846158c4565b60208201915081905092915050565b5f60ff82169050919050565b5f61591682615900565b915061592183615900565b9250828203905060ff81111561593a57615939615466565b5b92915050565b61594981615900565b82525050565b5f6080820190506159625f83018761521e565b61596f6020830186615940565b61597c604083018561521e565b615989606083018461521e565b95945050505050565b7f47533032360000000000000000000000000000000000000000000000000000005f82015250565b5f6159c660058361532e565b91506159d182615992565b602082019050919050565b5f6020820190508181035f8301526159f3816159ba565b9050919050565b7f47533130340000000000000000000000000000000000000000000000000000005f82015250565b5f615a2e60058361532e565b9150615a39826159fa565b602082019050919050565b5f6020820190508181035f830152615a5b81615a22565b9050919050565b5f615a6c82614628565b9150615a7783614628565b9250828202615a8581614628565b91508282048414831517615a9c57615a9b615466565b5b5092915050565b7f47533130310000000000000000000000000000000000000000000000000000005f82015250565b5f615ad760058361532e565b9150615ae282615aa3565b602082019050919050565b5f6020820190508181035f830152615b0481615acb565b9050919050565b7f47533130320000000000000000000000000000000000000000000000000000005f82015250565b5f615b3f60058361532e565b9150615b4a82615b0b565b602082019050919050565b5f6020820190508181035f830152615b6c81615b33565b9050919050565b7f47533230310000000000000000000000000000000000000000000000000000005f82015250565b5f615ba760058361532e565b9150615bb282615b73565b602082019050919050565b5f6020820190508181035f830152615bd481615b9b565b9050919050565b7f47533230320000000000000000000000000000000000000000000000000000005f82015250565b5f615c0f60058361532e565b9150615c1a82615bdb565b602082019050919050565b5f6020820190508181035f830152615c3c81615c03565b9050919050565b5f615c4e8385614a42565b9350615c5b83858461481f565b615c6483614767565b840190509392505050565b7f4e487b71000000000000000000000000000000000000000000000000000000005f52602160045260245ffd5b60028110615cad57615cac615c6f565b5b50565b5f819050615cbd82615c9c565b919050565b5f615ccc82615cb0565b9050919050565b615cdc81615cc2565b82525050565b615ceb81614bf1565b82525050565b5f61016082019050615d055f83018f6150e8565b615d12602083018e614631565b8181036040830152615d25818c8e615c43565b9050615d34606083018b615cd3565b615d41608083018a614631565b615d4e60a0830189614631565b615d5b60c0830188614631565b615d6860e08301876150e8565b615d76610100830186615ce2565b818103610120830152615d898185614a7a565b9050615d996101408301846150e8565b9d9c50505050505050505050505050565b5f615db482614628565b9150615dbf83614628565b9250828201905080821115615dd757615dd6615466565b5b92915050565b7f4e487b71000000000000000000000000000000000000000000000000000000005f52601260045260245ffd5b5f615e1482614628565b9150615e1f83614628565b925082615e2f57615e2e615ddd565b5b828204905092915050565b7f47533031300000000000000000000000000000000000000000000000000000005f82015250565b5f615e6e60058361532e565b9150615e7982615e3a565b602082019050919050565b5f6020820190508181035f830152615e9b81615e62565b9050919050565b5f615eac82614628565b9150615eb783614628565b9250828203905081811115615ecf57615ece615466565b5b92915050565b7f47533031330000000000000000000000000000000000000000000000000000005f82015250565b5f615f0960058361532e565b9150615f1482615ed5565b602082019050919050565b5f6020820190508181035f830152615f3681615efd565b9050919050565b5f604082019050615f505f83018561521e565b615f5d602083018461496d565b9392505050565b5f80fd5b5f80fd5b5f80fd5b5f8083356001602003843603038112615f8c57615f8b615f64565b5b80840192508235915067ffffffffffffffff821115615fae57615fad615f68565b5b602083019250600182023603831315615fca57615fc9615f6c565b5b509250929050565b615fdb81615900565b8114615fe5575f80fd5b50565b5f81359050615ff681615fd2565b92915050565b5f6020828403121561601157616010614662565b5b5f61601e84828501615fe8565b91505092915050565b50565b5f6160355f83614a42565b915061604082616027565b5f82019050919050565b5f6101608201905061605e5f83018d6150e8565b61606b602083018c614631565b818103604083015261607d818b614a7a565b905061608c606083018a615cd3565b6160996080830189614631565b6160a660a0830188614631565b6160b360c0830187614631565b6160c060e08301866150e8565b6160ce610100830185615ce2565b8181036101208301526160e08161602a565b90506160f06101408301846150e8565b9b9a5050505050505050505050565b7f47533030310000000000000000000000000000000000000000000000000000005f82015250565b5f61613360058361532e565b915061613e826160ff565b602082019050919050565b5f6020820190508181035f83015261616081616127565b9050919050565b7f4e487b71000000000000000000000000000000000000000000000000000000005f52603260045260245ffd5b5f819050919050565b5f6161ab60208401846146b0565b905092915050565b5f602082019050919050565b5f6161ca8385614e7b565b93506161d582616194565b805f5b8581101561620d576161ea828461619d565b6161f48882614ea9565b97506161ff836161b3565b9250506001810190506161d8565b5085925050509392505050565b5f6080820190508181035f8301526162338187896161bf565b90506162426020830186614631565b61624f60408301856150e8565b61625c60608301846150e8565b9695505050505050565b7f47533130350000000000000000000000000000000000000000000000000000005f82015250565b5f61629a60058361532e565b91506162a582616266565b602082019050919050565b5f6020820190508181035f8301526162c78161628e565b9050919050565b7f47533130360000000000000000000000000000000000000000000000000000005f82015250565b5f61630260058361532e565b915061630d826162ce565b602082019050919050565b5f6020820190508181035f83015261632f816162f6565b9050919050565b7f47533033300000000000000000000000000000000000000000000000000000005f82015250565b5f61636a60058361532e565b915061637582616336565b602082019050919050565b5f6020820190508181035f8301526163978161635e565b9050919050565b7f47533130330000000000000000000000000000000000000000000000000000005f82015250565b5f6163d260058361532e565b91506163dd8261639e565b602082019050919050565b5f6020820190508181035f8301526163ff816163c6565b9050919050565b61640f81615717565b82525050565b5f6020820190506164285f830184616406565b92915050565b61643781614962565b8114616441575f80fd5b50565b5f815190506164528161642e565b92915050565b5f6020828403121561646d5761646c614662565b5b5f61647a84828501616444565b91505092915050565b7f47533330300000000000000000000000000000000000000000000000000000005f82015250565b5f6164b760058361532e565b91506164c282616483565b602082019050919050565b5f6020820190508181035f8301526164e4816164ab565b9050919050565b7f47533230350000000000000000000000000000000000000000000000000000005f82015250565b5f61651f60058361532e565b915061652a826164eb565b602082019050919050565b5f6020820190508181035f83015261654c81616513565b9050919050565b5f81905092915050565b5f6165688385616553565b935061657583858461481f565b82840190509392505050565b5f61658d82848661655d565b91508190509392505050565b5f610160820190506165ad5f83018e61521e565b6165ba602083018d6150e8565b6165c7604083018c614631565b6165d4606083018b61521e565b6165e1608083018a615cd3565b6165ee60a0830189614631565b6165fb60c0830188614631565b61660860e0830187614631565b6166166101008301866150e8565b6166246101208301856150e8565b616632610140830184614631565b9c9b505050505050505050505050565b5f7fff0000000000000000000000000000000000000000000000000000000000000082169050919050565b5f819050919050565b61668761668282616642565b61666d565b82525050565b5f6166988287616676565b6001820191506166a88286616676565b6001820191506166b882856158c4565b6020820191506166c882846158c4565b60208201915081905095945050505050565b5f819050919050565b5f6166fd6166f86166f38461466a565b6166da565b61466a565b9050919050565b5f61670e826166e3565b9050919050565b5f61671f82616704565b9050919050565b61672f81616715565b82525050565b5f6060820190506167485f83018661521e565b6167556020830185614631565b6167626040830184616726565b949350505050565b5f61677482614628565b91505f820361678657616785615466565b5b600182039050919050565b7f47533033310000000000000000000000000000000000000000000000000000005f82015250565b5f6167c560058361532e565b91506167d082616791565b602082019050919050565b5f6020820190508181035f8301526167f2816167b9565b9050919050565b7f47533031310000000000000000000000000000000000000000000000000000005f82015250565b5f61682d60058361532e565b9150616838826167f9565b602082019050919050565b5f6020820190508181035f83015261685a81616821565b9050919050565b7f47533031320000000000000000000000000000000000000000000000000000005f82015250565b5f61689560058361532e565b91506168a082616861565b602082019050919050565b5f6020820190508181035f8301526168c281616889565b9050919050565b7f47533230300000000000000000000000000000000000000000000000000000005f82015250565b5f6168fd60058361532e565b9150616908826168c9565b602082019050919050565b5f6020820190508181035f83015261692a816168f1565b9050919050565b7f47533430300000000000000000000000000000000000000000000000000000005f82015250565b5f61696560058361532e565b915061697082616931565b602082019050919050565b5f6020820190508181035f83015261699281616959565b9050919050565b7f47533130300000000000000000000000000000000000000000000000000000005f82015250565b5f6169cd60058361532e565b91506169d882616999565b602082019050919050565b5f6020820190508181035f8301526169fa816169c1565b9050919050565b7f47533030320000000000000000000000000000000000000000000000000000005f82015250565b5f616a3560058361532e565b9150616a4082616a01565b602082019050919050565b5f6020820190508181035f830152616a6281616a29565b9050919050565b7f47533030300000000000000000000000000000000000000000000000000000005f82015250565b5f616a9d60058361532e565b9150616aa882616a69565b602082019050919050565b5f6020820190508181035f830152616aca81616a91565b9050919050565b5f604082019050616ae45f8301856150e8565b616af16020830184614631565b939250505056fea2646970667358221220811cdcfcdde50b4e32f7ea9539c5e96c4560a93d0537a050113d523cf18a090b64736f6c63430008180033","linkReferences":{}},"methodIdentifiers":{"VERSION()":"ffa1ad74","addOwnerWithThreshold(address,uint256)":"0d582f13","approveHash(bytes32)":"d4d9bdcd","approvedHashes(address,bytes32)":"7d832974","changeThreshold(uint256)":"694e80c3","checkNSignatures(bytes32,bytes,bytes,uint256)":"12fb68e0","checkSignatures(bytes32,bytes,bytes)":"934f3a11","disableModule(address,address)":"e009cfde","domainSeparator()":"f698da25","enableModule(address)":"610b5925","encodeTransactionData(address,uint256,bytes,uint8,uint256,uint256,uint256,address,address,uint256)":"e86637db","execTransaction((address,uint256,bytes,uint8,uint256,uint256,uint256,address,address,uint256))":"807cd28f","execTransaction(address,uint256,bytes,uint8,uint256,uint256,uint256,address,address,bytes)":"6a761202","execTransactionFromModule(address,uint256,bytes,uint8)":"468721a7","execTransactionFromModuleReturnData(address,uint256,bytes,uint8)":"5229073f","getChainId()":"3408e470","getModulesPaginated(address,uint256)":"cc2f8452","getOwners()":"a0e67e2b","getStorageAt(uint256,uint256)":"5624b25b","getThreshold()":"e75235b8","getTransactionHash(address,uint256,bytes,uint8,uint256,uint256,uint256,address,address,uint256)":"d8d11f78","isModuleEnabled(address)":"2d9ad53d","isOwner(address)":"2f54bf6e","nonce()":"affed0e0","removeOwner(address,address,uint256)":"f8dc5dd9","setFallbackHandler(address)":"f08a0323","setGuard(address)":"e19a9dd9","setup(address[],uint256,address,bytes,address,address,uint256,address)":"b63e800d","signedMessages(bytes32)":"5ae6bd37","simulateAndRevert(address,bytes)":"b4faba09","swapOwner(address,address,address)":"e318b52b"},"id":45}