{"abi":[{"type":"fallback","stateMutability":"nonpayable"},{"type":"receive","stateMutability":"payable"},{"type":"function","name":"VERSION","inputs":[],"outputs":[{"name":"","type":"string","internalType":"string"}],"stateMutability":"view"},{"type":"function","name":"addOwnerWithThreshold","inputs":[{"name":"owner","type":"address","internalType":"address"},{"name":"_threshold","type":"uint256","internalType":"uint256"}],"outputs":[],"stateMutability":"nonpayable"},{"type":"function","name":"approveHash","inputs":[{"name":"hashToApprove","type":"bytes32","internalType":"bytes32"}],"outputs":[],"stateMutability":"nonpayable"},{"type":"function","name":"approvedHashes","inputs":[{"name":"","type":"address","internalType":"address"},{"name":"","type":"bytes32","internalType":"bytes32"}],"outputs":[{"name":"","type":"uint256","internalType":"uint256"}],"stateMutability":"view"},{"type":"function","name":"changeThreshold","inputs":[{"name":"_threshold","type":"uint256","internalType":"uint256"}],"outputs":[],"stateMutability":"nonpayable"},{"type":"function","name":"checkNSignatures","inputs":[{"name":"dataHash","type":"bytes32","internalType":"bytes32"},{"name":"data","type":"bytes","internalType":"bytes"},{"name":"signatures","type":"bytes","internalType":"bytes"},{"name":"requiredSignatures","type":"uint256","internalType":"uint256"}],"outputs":[],"stateMutability":"view"},{"type":"function","name":"checkSignatures","inputs":[{"name":"dataHash","type":"bytes32","internalType":"bytes32"},{"name":"data","type":"bytes","internalType":"bytes"},{"name":"signatures","type":"bytes","internalType":"bytes"}],"outputs":[],"stateMutability":"view"},{"type":"function","name":"disableModule","inputs":[{"name":"prevModule","type":"address","internalType":"address"},{"name":"module","type":"address","internalType":"address"}],"outputs":[],"stateMutability":"nonpayable"},{"type":"function","name":"domainSeparator","inputs":[],"outputs":[{"name":"","type":"bytes32","internalType":"bytes32"}],"stateMutability":"view"},{"type":"function","name":"enableModule","inputs":[{"name":"module","type":"address","internalType":"address"}],"outputs":[],"stateMutability":"nonpayable"},{"type":"function","name":"encodeTransactionData","inputs":[{"name":"to","type":"address","internalType":"address"},{"name":"value","type":"uint256","internalType":"uint256"},{"name":"data","type":"bytes","internalType":"bytes"},{"name":"operation","type":"uint8","internalType":"enum Enum.Operation"},{"name":"safeTxGas","type":"uint256","internalType":"uint256"},{"name":"baseGas","type":"uint256","internalType":"uint256"},{"name":"gasPrice","type":"uint256","internalType":"uint256"},{"name":"gasToken","type":"address","internalType":"address"},{"name":"refundReceiver","type":"address","internalType":"address"},{"name":"_nonce","type":"uint256","internalType":"uint256"}],"outputs":[{"name":"","type":"bytes","internalType":"bytes"}],"stateMutability":"view"},{"type":"function","name":"execTransaction","inputs":[{"name":"to","type":"address","internalType":"address"},{"name":"value","type":"uint256","internalType":"uint256"},{"name":"data","type":"bytes","internalType":"bytes"},{"name":"operation","type":"uint8","internalType":"enum Enum.Operation"},{"name":"safeTxGas","type":"uint256","internalType":"uint256"},{"name":"baseGas","type":"uint256","internalType":"uint256"},{"name":"gasPrice","type":"uint256","internalType":"uint256"},{"name":"gasToken","type":"address","internalType":"address"},{"name":"refundReceiver","type":"address","internalType":"address payable"},{"name":"signatures","type":"bytes","internalType":"bytes"}],"outputs":[{"name":"success","type":"bool","internalType":"bool"}],"stateMutability":"payable"},{"type":"function","name":"execTransaction","inputs":[{"name":"safeTx","type":"tuple","internalType":"struct ISafeTx.SafeTx","components":[{"name":"to","type":"address","internalType":"address"},{"name":"value","type":"uint256","internalType":"uint256"},{"name":"data","type":"bytes","internalType":"bytes"},{"name":"operation","type":"uint8","internalType":"uint8"},{"name":"safeTxGas","type":"uint256","internalType":"uint256"},{"name":"baseGas","type":"uint256","internalType":"uint256"},{"name":"gasPrice","type":"uint256","internalType":"uint256"},{"name":"gasToken","type":"address","internalType":"address"},{"name":"refundReceiver","type":"address","internalType":"address"},{"name":"nonce","type":"uint256","internalType":"uint256"}]}],"outputs":[{"name":"success","type":"bool","internalType":"bool"}],"stateMutability":"nonpayable"},{"type":"function","name":"execTransactionFromModule","inputs":[{"name":"to","type":"address","internalType":"address"},{"name":"value","type":"uint256","internalType":"uint256"},{"name":"data","type":"bytes","internalType":"bytes"},{"name":"operation","type":"uint8","internalType":"enum Enum.Operation"}],"outputs":[{"name":"success","type":"bool","internalType":"bool"}],"stateMutability":"nonpayable"},{"type":"function","name":"execTransactionFromModuleReturnData","inputs":[{"name":"to","type":"address","internalType":"address"},{"name":"value","type":"uint256","internalType":"uint256"},{"name":"data","type":"bytes","internalType":"bytes"},{"name":"operation","type":"uint8","internalType":"enum Enum.Operation"}],"outputs":[{"name":"success","type":"bool","internalType":"bool"},{"name":"returnData","type":"bytes","internalType":"bytes"}],"stateMutability":"nonpayable"},{"type":"function","name":"getChainId","inputs":[],"outputs":[{"name":"","type":"uint256","internalType":"uint256"}],"stateMutability":"view"},{"type":"function","name":"getModulesPaginated","inputs":[{"name":"start","type":"address","internalType":"address"},{"name":"pageSize","type":"uint256","internalType":"uint256"}],"outputs":[{"name":"array","type":"address[]","internalType":"address[]"},{"name":"next","type":"address","internalType":"address"}],"stateMutability":"view"},{"type":"function","name":"getOwners","inputs":[],"outputs":[{"name":"","type":"address[]","internalType":"address[]"}],"stateMutability":"view"},{"type":"function","name":"getStorageAt","inputs":[{"name":"offset","type":"uint256","internalType":"uint256"},{"name":"length","type":"uint256","internalType":"uint256"}],"outputs":[{"name":"","type":"bytes","internalType":"bytes"}],"stateMutability":"view"},{"type":"function","name":"getThreshold","inputs":[],"outputs":[{"name":"","type":"uint256","internalType":"uint256"}],"stateMutability":"view"},{"type":"function","name":"getTransactionHash","inputs":[{"name":"to","type":"address","internalType":"address"},{"name":"value","type":"uint256","internalType":"uint256"},{"name":"data","type":"bytes","internalType":"bytes"},{"name":"operation","type":"uint8","internalType":"enum Enum.Operation"},{"name":"safeTxGas","type":"uint256","internalType":"uint256"},{"name":"baseGas","type":"uint256","internalType":"uint256"},{"name":"gasPrice","type":"uint256","internalType":"uint256"},{"name":"gasToken","type":"address","internalType":"address"},{"name":"refundReceiver","type":"address","internalType":"address"},{"name":"_nonce","type":"uint256","internalType":"uint256"}],"outputs":[{"name":"","type":"bytes32","internalType":"bytes32"}],"stateMutability":"view"},{"type":"function","name":"isModuleEnabled","inputs":[{"name":"module","type":"address","internalType":"address"}],"outputs":[{"name":"","type":"bool","internalType":"bool"}],"stateMutability":"view"},{"type":"function","name":"isOwner","inputs":[{"name":"owner","type":"address","internalType":"address"}],"outputs":[{"name":"","type":"bool","internalType":"bool"}],"stateMutability":"view"},{"type":"function","name":"nonce","inputs":[],"outputs":[{"name":"","type":"uint256","internalType":"uint256"}],"stateMutability":"view"},{"type":"function","name":"removeOwner","inputs":[{"name":"prevOwner","type":"address","internalType":"address"},{"name":"owner","type":"address","internalType":"address"},{"name":"_threshold","type":"uint256","internalType":"uint256"}],"outputs":[],"stateMutability":"nonpayable"},{"type":"function","name":"setFallbackHandler","inputs":[{"name":"handler","type":"address","internalType":"address"}],"outputs":[],"stateMutability":"nonpayable"},{"type":"function","name":"setGuard","inputs":[{"name":"guard","type":"address","internalType":"address"}],"outputs":[],"stateMutability":"nonpayable"},{"type":"function","name":"setup","inputs":[{"name":"_owners","type":"address[]","internalType":"address[]"},{"name":"_threshold","type":"uint256","internalType":"uint256"},{"name":"to","type":"address","internalType":"address"},{"name":"data","type":"bytes","internalType":"bytes"},{"name":"fallbackHandler","type":"address","internalType":"address"},{"name":"paymentToken","type":"address","internalType":"address"},{"name":"payment","type":"uint256","internalType":"uint256"},{"name":"paymentReceiver","type":"address","internalType":"address payable"}],"outputs":[],"stateMutability":"nonpayable"},{"type":"function","name":"signedMessages","inputs":[{"name":"","type":"bytes32","internalType":"bytes32"}],"outputs":[{"name":"","type":"uint256","internalType":"uint256"}],"stateMutability":"view"},{"type":"function","name":"simulateAndRevert","inputs":[{"name":"targetContract","type":"address","internalType":"address"},{"name":"calldataPayload","type":"bytes","internalType":"bytes"}],"outputs":[],"stateMutability":"nonpayable"},{"type":"function","name":"swapOwner","inputs":[{"name":"prevOwner","type":"address","internalType":"address"},{"name":"oldOwner","type":"address","internalType":"address"},{"name":"newOwner","type":"address","internalType":"address"}],"outputs":[],"stateMutability":"nonpayable"},{"type":"event","name":"AddedOwner","inputs":[{"name":"owner","type":"address","indexed":true,"internalType":"address"}],"anonymous":false},{"type":"event","name":"ApproveHash","inputs":[{"name":"approvedHash","type":"bytes32","indexed":true,"internalType":"bytes32"},{"name":"owner","type":"address","indexed":true,"internalType":"address"}],"anonymous":false},{"type":"event","name":"ChangedFallbackHandler","inputs":[{"name":"handler","type":"address","indexed":true,"internalType":"address"}],"anonymous":false},{"type":"event","name":"ChangedGuard","inputs":[{"name":"guard","type":"address","indexed":true,"internalType":"address"}],"anonymous":false},{"type":"event","name":"ChangedThreshold","inputs":[{"name":"threshold","type":"uint256","indexed":false,"internalType":"uint256"}],"anonymous":false},{"type":"event","name":"DisabledModule","inputs":[{"name":"module","type":"address","indexed":true,"internalType":"address"}],"anonymous":false},{"type":"event","name":"EnabledModule","inputs":[{"name":"module","type":"address","indexed":true,"internalType":"address"}],"anonymous":false},{"type":"event","name":"ExecutionFailure","inputs":[{"name":"txHash","type":"bytes32","indexed":true,"internalType":"bytes32"},{"name":"payment","type":"uint256","indexed":false,"internalType":"uint256"}],"anonymous":false},{"type":"event","name":"ExecutionFromModuleFailure","inputs":[{"name":"module","type":"address","indexed":true,"internalType":"address"}],"anonymous":false},{"type":"event","name":"ExecutionFromModuleSuccess","inputs":[{"name":"module","type":"address","indexed":true,"internalType":"address"}],"anonymous":false},{"type":"event","name":"ExecutionSuccess","inputs":[{"name":"txHash","type":"bytes32","indexed":true,"internalType":"bytes32"},{"name":"payment","type":"uint256","indexed":false,"internalType":"uint256"}],"anonymous":false},{"type":"event","name":"RemovedOwner","inputs":[{"name":"owner","type":"address","indexed":true,"internalType":"address"}],"anonymous":false},{"type":"event","name":"SafeReceived","inputs":[{"name":"sender","type":"address","indexed":true,"internalType":"address"},{"name":"value","type":"uint256","indexed":false,"internalType":"uint256"}],"anonymous":false},{"type":"event","name":"SafeSetup","inputs":[{"name":"initiator","type":"address","indexed":true,"internalType":"address"},{"name":"owners","type":"address[]","indexed":false,"internalType":"address[]"},{"name":"threshold","type":"uint256","indexed":false,"internalType":"uint256"},{"name":"initializer","type":"address","indexed":false,"internalType":"address"},{"name":"fallbackHandler","type":"address","indexed":false,"internalType":"address"}],"anonymous":false},{"type":"event","name":"SignMsg","inputs":[{"name":"msgHash","type":"bytes32","indexed":true,"internalType":"bytes32"}],"anonymous":false}],"bytecode":{"object":"0x608060405234801561000f575f80fd5b5060016004819055506168eb80620000265f395ff3fe6080604052600436106101db575f3560e01c8063a0e67e2b11610101578063e19a9dd911610094578063f08a032311610063578063f08a0323146107b9578063f698da25146107e1578063f8dc5dd91461080b578063ffa1ad741461083357610230565b8063e19a9dd914610703578063e318b52b1461072b578063e75235b814610753578063e86637db1461077d57610230565b8063cc2f8452116100d0578063cc2f84521461063a578063d4d9bdcd14610677578063d8d11f781461069f578063e009cfde146106db57610230565b8063a0e67e2b14610596578063affed0e0146105c0578063b4faba09146105ea578063b63e800d1461061257610230565b80635624b25b116101795780636a761202116101485780636a761202146104c65780637d832974146104f6578063807cd28f14610532578063934f3a111461056e57610230565b80635624b25b146103fe5780635ae6bd371461043a578063610b592514610476578063694e80c31461049e57610230565b80632f54bf6e116101b55780632f54bf6e1461031f5780633408e4701461035b578063468721a7146103855780635229073f146103c157610230565b80630d582f131461029357806312fb68e0146102bb5780632d9ad53d146102e357610230565b36610230573373ffffffffffffffffffffffffffffffffffffffff167f3d0ce9bfc3ed7d6862dbb28b2dea94561fe714a1b4d019aa8af39730d1ad7c3d3460405161022691906144d5565b60405180910390a2005b34801561023b575f80fd5b505f7f6c9a6c4a39284e37ed1cf53d337577d14212a4870fb976a4366c693b939918d55f1b905080548061026d575f80f35b365f80373360601b36525f80601436015f80855af13d5f803e8061028f573d5ffd5b3d5ff35b34801561029e575f80fd5b506102b960048036038101906102b49190614583565b61085d565b005b3480156102c6575f80fd5b506102e160048036038101906102dc9190614730565b610bd4565b005b3480156102ee575f80fd5b50610309600480360381019061030491906147cc565b6111f2565b6040516103169190614811565b60405180910390f35b34801561032a575f80fd5b50610345600480360381019061034091906147cc565b6112bf565b6040516103529190614811565b60405180910390f35b348015610366575f80fd5b5061036f61138c565b60405161037c91906144d5565b60405180910390f35b348015610390575f80fd5b506103ab60048036038101906103a6919061484d565b611398565b6040516103b89190614811565b60405180910390f35b3480156103cc575f80fd5b506103e760048036038101906103e2919061484d565b611566565b6040516103f5929190614947565b60405180910390f35b348015610409575f80fd5b50610424600480360381019061041f9190614975565b61159a565b60405161043191906149b3565b60405180910390f35b348015610445575f80fd5b50610460600480360381019061045b91906149d3565b61162a565b60405161046d91906144d5565b60405180910390f35b348015610481575f80fd5b5061049c600480360381019061049791906147cc565b61163f565b005b3480156104a9575f80fd5b506104c460048036038101906104bf91906149fe565b611953565b005b6104e060048036038101906104db9190614ac1565b611a27565b6040516104ed9190614811565b60405180910390f35b348015610501575f80fd5b5061051c60048036038101906105179190614bd6565b611dd0565b60405161052991906144d5565b60405180910390f35b34801561053d575f80fd5b5061055860048036038101906105539190614c37565b611df0565b6040516105659190614811565b60405180910390f35b348015610579575f80fd5b50610594600480360381019061058f9190614c7e565b6120b7565b005b3480156105a1575f80fd5b506105aa612111565b6040516105b79190614dbd565b60405180910390f35b3480156105cb575f80fd5b506105d46122c1565b6040516105e191906144d5565b60405180910390f35b3480156105f5575f80fd5b50610610600480360381019061060b9190614ddd565b6122c7565b005b34801561061d575f80fd5b5061063860048036038101906106339190614e8c565b6122e5565b005b348015610645575f80fd5b50610660600480360381019061065b9190614583565b612433565b60405161066e929190614f8c565b60405180910390f35b348015610682575f80fd5b5061069d600480360381019061069891906149d3565b612745565b005b3480156106aa575f80fd5b506106c560048036038101906106c09190614fba565b6128a8565b6040516106d291906150c2565b60405180910390f35b3480156106e6575f80fd5b5061070160048036038101906106fc91906150db565b6128d4565b005b34801561070e575f80fd5b50610729600480360381019061072491906147cc565b612be7565b005b348015610736575f80fd5b50610751600480360381019061074c9190615119565b612d6a565b005b34801561075e575f80fd5b506107676132e6565b60405161077491906144d5565b60405180910390f35b348015610788575f80fd5b506107a3600480360381019061079e9190614fba565b6132ef565b6040516107b091906149b3565b60405180910390f35b3480156107c4575f80fd5b506107df60048036038101906107da91906147cc565b6133af565b005b3480156107ec575f80fd5b506107f5613406565b60405161080291906150c2565b60405180910390f35b348015610816575f80fd5b50610831600480360381019061082c9190615169565b613460565b005b34801561083e575f80fd5b506108476137ef565b604051610854919061520b565b60405180910390f35b610865613828565b5f73ffffffffffffffffffffffffffffffffffffffff168273ffffffffffffffffffffffffffffffffffffffff16141580156108ce5750600173ffffffffffffffffffffffffffffffffffffffff168273ffffffffffffffffffffffffffffffffffffffff1614155b801561090657503073ffffffffffffffffffffffffffffffffffffffff168273ffffffffffffffffffffffffffffffffffffffff1614155b610945576040517f08c379a000000000000000000000000000000000000000000000000000000000815260040161093c90615275565b60405180910390fd5b5f73ffffffffffffffffffffffffffffffffffffffff1660025f8473ffffffffffffffffffffffffffffffffffffffff1673ffffffffffffffffffffffffffffffffffffffff1681526020019081526020015f205f9054906101000a900473ffffffffffffffffffffffffffffffffffffffff1673ffffffffffffffffffffffffffffffffffffffff1614610a0f576040517f08c379a0000000000000000000000000000000000000000000000000000000008152600401610a06906152dd565b60405180910390fd5b60025f600173ffffffffffffffffffffffffffffffffffffffff1673ffffffffffffffffffffffffffffffffffffffff1681526020019081526020015f205f9054906101000a900473ffffffffffffffffffffffffffffffffffffffff1660025f8473ffffffffffffffffffffffffffffffffffffffff1673ffffffffffffffffffffffffffffffffffffffff1681526020019081526020015f205f6101000a81548173ffffffffffffffffffffffffffffffffffffffff021916908373ffffffffffffffffffffffffffffffffffffffff1602179055508160025f600173ffffffffffffffffffffffffffffffffffffffff1673ffffffffffffffffffffffffffffffffffffffff1681526020019081526020015f205f6101000a81548173ffffffffffffffffffffffffffffffffffffffff021916908373ffffffffffffffffffffffffffffffffffffffff16021790555060035f815480929190610b7590615328565b91905055508173ffffffffffffffffffffffffffffffffffffffff167f9465fa0c962cc76958e6373a993326400c1c94f8be2fe3a952adfa7f60b2ea2660405160405180910390a28060045414610bd057610bcf81611953565b5b5050565b610be860418261389890919063ffffffff16565b82511015610c2b576040517f08c379a0000000000000000000000000000000000000000000000000000000008152600401610c22906153b9565b60405180910390fd5b5f80805f805f5b868110156111e657610c4488826138d8565b8094508195508296505050505f8460ff1603610edf5789898051906020012014610ca3576040517f08c379a0000000000000000000000000000000000000000000000000000000008152600401610c9a90615421565b60405180910390fd5b825f1c9450610cbc60418861389890919063ffffffff16565b825f1c1015610d00576040517f08c379a0000000000000000000000000000000000000000000000000000000008152600401610cf790615489565b60405180910390fd5b8751610d186020845f1c61390590919063ffffffff16565b1115610d59576040517f08c379a0000000000000000000000000000000000000000000000000000000008152600401610d50906154f1565b60405180910390fd5b5f6020838a01015190508851610d8d82610d7f6020875f1c61390590919063ffffffff16565b61390590919063ffffffff16565b1115610dce576040517f08c379a0000000000000000000000000000000000000000000000000000000008152600401610dc590615559565b60405180910390fd5b60606020848b010190506320c13b0b60e01b7bffffffffffffffffffffffffffffffffffffffffffffffffffffffff19168773ffffffffffffffffffffffffffffffffffffffff166320c13b0b8d846040518363ffffffff1660e01b8152600401610e3a929190615577565b602060405180830381865afa158015610e55573d5f803e3d5ffd5b505050506040513d601f19601f82011682018060405250810190610e799190615601565b7bffffffffffffffffffffffffffffffffffffffffffffffffffffffff191614610ed8576040517f08c379a0000000000000000000000000000000000000000000000000000000008152600401610ecf90615676565b60405180910390fd5b505061109b565b60018460ff1603610fb957825f1c94508473ffffffffffffffffffffffffffffffffffffffff163373ffffffffffffffffffffffffffffffffffffffff161480610f7557505f60085f8773ffffffffffffffffffffffffffffffffffffffff1673ffffffffffffffffffffffffffffffffffffffff1681526020019081526020015f205f8c81526020019081526020015f205414155b610fb4576040517f08c379a0000000000000000000000000000000000000000000000000000000008152600401610fab906156de565b60405180910390fd5b61109a565b601e8460ff16111561104a5760018a604051602001610fd89190615770565b60405160208183030381529060405280519060200120600486610ffb91906157a1565b85856040515f815260200160405260405161101994939291906157e4565b6020604051602081039080840390855afa158015611039573d5f803e3d5ffd5b505050602060405103519450611099565b60018a8585856040515f815260200160405260405161106c94939291906157e4565b6020604051602081039080840390855afa15801561108c573d5f803e3d5ffd5b5050506020604051035194505b5b5b8573ffffffffffffffffffffffffffffffffffffffff168573ffffffffffffffffffffffffffffffffffffffff1611801561115e57505f73ffffffffffffffffffffffffffffffffffffffff1660025f8773ffffffffffffffffffffffffffffffffffffffff1673ffffffffffffffffffffffffffffffffffffffff1681526020019081526020015f205f9054906101000a900473ffffffffffffffffffffffffffffffffffffffff1673ffffffffffffffffffffffffffffffffffffffff1614155b80156111975750600173ffffffffffffffffffffffffffffffffffffffff168573ffffffffffffffffffffffffffffffffffffffff1614155b6111d6576040517f08c379a00000000000000000000000000000000000000000000000000000000081526004016111cd90615871565b60405180910390fd5b8495508080600101915050610c32565b50505050505050505050565b5f8173ffffffffffffffffffffffffffffffffffffffff16600173ffffffffffffffffffffffffffffffffffffffff16141580156112b857505f73ffffffffffffffffffffffffffffffffffffffff1660015f8473ffffffffffffffffffffffffffffffffffffffff1673ffffffffffffffffffffffffffffffffffffffff1681526020019081526020015f205f9054906101000a900473ffffffffffffffffffffffffffffffffffffffff1673ffffffffffffffffffffffffffffffffffffffff1614155b9050919050565b5f600173ffffffffffffffffffffffffffffffffffffffff168273ffffffffffffffffffffffffffffffffffffffff161415801561138557505f73ffffffffffffffffffffffffffffffffffffffff1660025f8473ffffffffffffffffffffffffffffffffffffffff1673ffffffffffffffffffffffffffffffffffffffff1681526020019081526020015f205f9054906101000a900473ffffffffffffffffffffffffffffffffffffffff1673ffffffffffffffffffffffffffffffffffffffff1614155b9050919050565b5f804690508091505090565b5f600173ffffffffffffffffffffffffffffffffffffffff163373ffffffffffffffffffffffffffffffffffffffff161415801561145e57505f73ffffffffffffffffffffffffffffffffffffffff1660015f3373ffffffffffffffffffffffffffffffffffffffff1673ffffffffffffffffffffffffffffffffffffffff1681526020019081526020015f205f9054906101000a900473ffffffffffffffffffffffffffffffffffffffff1673ffffffffffffffffffffffffffffffffffffffff1614155b61149d576040517f08c379a0000000000000000000000000000000000000000000000000000000008152600401611494906158d9565b60405180910390fd5b6114ca858585857fffffffffffffffffffffffffffffffffffffffffffffffffffffffffffffffff61392b565b9050801561151a573373ffffffffffffffffffffffffffffffffffffffff167f6895c13664aa4f67288b25d7a21d7aaa34916e355fb9b6fae0a139a9085becb860405160405180910390a261155e565b3373ffffffffffffffffffffffffffffffffffffffff167facd2c8702804128fdb0db2bb49f6d127dd0181c13fd45dbfe16de0930e2bd37560405160405180910390a25b949350505050565b5f606061157586868686611398565b915060405160203d0181016040523d81523d5f602083013e8091505094509492505050565b60605f6020836115aa91906158f7565b67ffffffffffffffff8111156115c3576115c261460c565b5b6040519080825280601f01601f1916602001820160405280156115f55781602001600182028036833780820191505090505b5090505f5b8381101561161f578085015480602083026020850101525080806001019150506115fa565b508091505092915050565b6007602052805f5260405f205f915090505481565b611647613828565b5f73ffffffffffffffffffffffffffffffffffffffff168173ffffffffffffffffffffffffffffffffffffffff16141580156116b05750600173ffffffffffffffffffffffffffffffffffffffff168173ffffffffffffffffffffffffffffffffffffffff1614155b6116ef576040517f08c379a00000000000000000000000000000000000000000000000000000000081526004016116e690615982565b60405180910390fd5b5f73ffffffffffffffffffffffffffffffffffffffff1660015f8373ffffffffffffffffffffffffffffffffffffffff1673ffffffffffffffffffffffffffffffffffffffff1681526020019081526020015f205f9054906101000a900473ffffffffffffffffffffffffffffffffffffffff1673ffffffffffffffffffffffffffffffffffffffff16146117b9576040517f08c379a00000000000000000000000000000000000000000000000000000000081526004016117b0906159ea565b60405180910390fd5b60015f600173ffffffffffffffffffffffffffffffffffffffff1673ffffffffffffffffffffffffffffffffffffffff1681526020019081526020015f205f9054906101000a900473ffffffffffffffffffffffffffffffffffffffff1660015f8373ffffffffffffffffffffffffffffffffffffffff1673ffffffffffffffffffffffffffffffffffffffff1681526020019081526020015f205f6101000a81548173ffffffffffffffffffffffffffffffffffffffff021916908373ffffffffffffffffffffffffffffffffffffffff1602179055508060015f600173ffffffffffffffffffffffffffffffffffffffff1673ffffffffffffffffffffffffffffffffffffffff1681526020019081526020015f205f6101000a81548173ffffffffffffffffffffffffffffffffffffffff021916908373ffffffffffffffffffffffffffffffffffffffff1602179055508073ffffffffffffffffffffffffffffffffffffffff167fecdf3a3effea5783a3c4c2140e677577666428d44ed9d474a0b3a4c9943f844060405160405180910390a250565b61195b613828565b6003548111156119a0576040517f08c379a000000000000000000000000000000000000000000000000000000000815260040161199790615a52565b60405180910390fd5b60018110156119e4576040517f08c379a00000000000000000000000000000000000000000000000000000000081526004016119db90615aba565b60405180910390fd5b806004819055507f610f7ff2b304ae8903c3de74c60c6ab1f7d6226b3f52c5161905bb5ad4039c93600454604051611a1c91906144d5565b60405180910390a150565b5f805f611a3f8e8e8e8e8e8e8e8e8e8e6005546132ef565b905060055f815480929190611a5390615328565b919050555080805190602001209150611a6d8282866120b7565b505f611a77613981565b90505f73ffffffffffffffffffffffffffffffffffffffff168173ffffffffffffffffffffffffffffffffffffffff1614611b29578073ffffffffffffffffffffffffffffffffffffffff166375f0bb528f8f8f8f8f8f8f8f8f8f8f336040518d63ffffffff1660e01b8152600401611afb9c9b9a99989796959493929190615b86565b5f604051808303815f87803b158015611b12575f80fd5b505af1158015611b24573d5f803e3d5ffd5b505050505b6101f4611b646109c48b611b3d9190615c3f565b603f60408d611b4c91906158f7565b611b569190615c9f565b6139b090919063ffffffff16565b611b6e9190615c3f565b5a1015611bb0576040517f08c379a0000000000000000000000000000000000000000000000000000000008152600401611ba790615d19565b60405180910390fd5b5f5a9050611c1f8f8f8f8f8080601f0160208091040260200160405190810160405280939291908181526020018383808284375f81840152601f19601f820116905080830192505050505050508e5f8d14611c0b578e611c1a565b6109c45a611c199190615d37565b5b61392b565b9350611c345a826139c990919063ffffffff16565b90508380611c4257505f8a14155b80611c4d57505f8814155b611c8c576040517f08c379a0000000000000000000000000000000000000000000000000000000008152600401611c8390615db4565b60405180910390fd5b5f80891115611ca557611ca2828b8b8b8b6139ef565b90505b8415611ce857837f442e715f626346e8c54381002da614f62bee8d27386535b2521ec8540898556e82604051611cdb91906144d5565b60405180910390a2611d21565b837f23428b18acfb3ea64b08dc0c1d296ea9c09702c09083ca5272e64d115b687d2382604051611d1891906144d5565b60405180910390a25b50505f73ffffffffffffffffffffffffffffffffffffffff168173ffffffffffffffffffffffffffffffffffffffff1614611dbf578073ffffffffffffffffffffffffffffffffffffffff16639327136883856040518363ffffffff1660e01b8152600401611d91929190615dd2565b5f604051808303815f87803b158015611da8575f80fd5b505af1158015611dba573d5f803e3d5ffd5b505050505b50509b9a5050505050505050505050565b6008602052815f5260405f20602052805f5260405f205f91509150505481565b5f80825f016020810190611e0491906147cc565b90505f836020013590505f848060400190611e1f9190615e05565b8080601f0160208091040260200160405190810160405280939291908181526020018383808284375f81840152601f19601f8201169050808301925050505050505090505f856060016020810190611e779190615e91565b90505f866080013590505f8760a0013590505f8860c0013590505f8960e0016020810190611ea591906147cc565b90505f8a610100016020810190611ebc91906147cc565b90505f8b6101200135905060055f815480929190611ed990615328565b919050558114611f0d57611f0c7f4753303234000000000000000000000000000000000000000000000000000000613b8a565b5b6101f46109c487611f1e9190615c3f565b603f600689901b611f2f9190615c9f565b11611f47576109c487611f429190615c3f565b611f59565b603f600688901b611f589190615c9f565b5b611f639190615c3f565b5a1015611f9457611f937f4753303130000000000000000000000000000000000000000000000000000000613b8a565b5b5f5a9050611fd58b8b8b8b60ff166001811115611fb457611fb3615b04565b5b5f8a14611fc1578b611fd0565b6109c45a611fcf9190615d37565b5b61392b565b9b505a81611fe39190615d37565b90508b158015611ff257505f87145b8015611ffd57505f85145b1561200d576040513d5f823e3d81fd5b5f80861115612026576120238288888888613bc9565b90505b8c1561206b575f801b7f442e715f626346e8c54381002da614f62bee8d27386535b2521ec8540898556e8260405161205e91906144d5565b60405180910390a26120a6565b5f801b7f23428b18acfb3ea64b08dc0c1d296ea9c09702c09083ca5272e64d115b687d238260405161209d91906144d5565b60405180910390a25b505050505050505050505050919050565b5f60045490505f81116120ff576040517f08c379a00000000000000000000000000000000000000000000000000000000081526004016120f690615f06565b60405180910390fd5b61210b84848484610bd4565b50505050565b60605f60035467ffffffffffffffff8111156121305761212f61460c565b5b60405190808252806020026020018201604052801561215e5781602001602082028036833780820191505090505b5090505f8060025f600173ffffffffffffffffffffffffffffffffffffffff1673ffffffffffffffffffffffffffffffffffffffff1681526020019081526020015f205f9054906101000a900473ffffffffffffffffffffffffffffffffffffffff1690505b600173ffffffffffffffffffffffffffffffffffffffff168173ffffffffffffffffffffffffffffffffffffffff16146122b8578083838151811061220c5761220b615f24565b5b602002602001019073ffffffffffffffffffffffffffffffffffffffff16908173ffffffffffffffffffffffffffffffffffffffff168152505060025f8273ffffffffffffffffffffffffffffffffffffffff1673ffffffffffffffffffffffffffffffffffffffff1681526020019081526020015f205f9054906101000a900473ffffffffffffffffffffffffffffffffffffffff16905081806122b090615328565b9250506121c4565b82935050505090565b60055481565b5f80825160208401855af4805f523d6020523d5f60403e60403d015ffd5b61232f8a8a808060200260200160405190810160405280939291908181526020018383602002808284375f81840152601f19601f8201169050808301925050505050505089613d42565b5f73ffffffffffffffffffffffffffffffffffffffff168473ffffffffffffffffffffffffffffffffffffffff161461236c5761236b8461413b565b5b6123b98787878080601f0160208091040260200160405190810160405280939291908181526020018383808284375f81840152601f19601f820116905080830192505050505050506141d6565b5f8211156123d1576123cf825f600186856139ef565b505b3373ffffffffffffffffffffffffffffffffffffffff167f141df868a6331af528e38c83b7aa03edc19be66e37ae67f9285bf4f8e3c6a1a88b8b8b8b8960405161241f959493929190615fd7565b60405180910390a250505050505050505050565b60605f600173ffffffffffffffffffffffffffffffffffffffff168473ffffffffffffffffffffffffffffffffffffffff1614806124765750612475846111f2565b5b6124b5576040517f08c379a00000000000000000000000000000000000000000000000000000000081526004016124ac9061606d565b60405180910390fd5b5f83116124f7576040517f08c379a00000000000000000000000000000000000000000000000000000000081526004016124ee906160d5565b60405180910390fd5b8267ffffffffffffffff8111156125115761251061460c565b5b60405190808252806020026020018201604052801561253f5781602001602082028036833780820191505090505b5091505f60015f8673ffffffffffffffffffffffffffffffffffffffff1673ffffffffffffffffffffffffffffffffffffffff1681526020019081526020015f205f9054906101000a900473ffffffffffffffffffffffffffffffffffffffff1691505b5f73ffffffffffffffffffffffffffffffffffffffff168273ffffffffffffffffffffffffffffffffffffffff161415801561260c5750600173ffffffffffffffffffffffffffffffffffffffff168273ffffffffffffffffffffffffffffffffffffffff1614155b801561261757508381105b156126dc57818382815181106126305761262f615f24565b5b602002602001019073ffffffffffffffffffffffffffffffffffffffff16908173ffffffffffffffffffffffffffffffffffffffff168152505060015f8373ffffffffffffffffffffffffffffffffffffffff1673ffffffffffffffffffffffffffffffffffffffff1681526020019081526020015f205f9054906101000a900473ffffffffffffffffffffffffffffffffffffffff16915080806126d490615328565b9150506125a3565b600173ffffffffffffffffffffffffffffffffffffffff168273ffffffffffffffffffffffffffffffffffffffff161461273a578260018261271e9190615d37565b8151811061272f5761272e615f24565b5b602002602001015191505b808352509250929050565b5f73ffffffffffffffffffffffffffffffffffffffff1660025f3373ffffffffffffffffffffffffffffffffffffffff1673ffffffffffffffffffffffffffffffffffffffff1681526020019081526020015f205f9054906101000a900473ffffffffffffffffffffffffffffffffffffffff1673ffffffffffffffffffffffffffffffffffffffff160361280f576040517f08c379a00000000000000000000000000000000000000000000000000000000081526004016128069061613d565b60405180910390fd5b600160085f3373ffffffffffffffffffffffffffffffffffffffff1673ffffffffffffffffffffffffffffffffffffffff1681526020019081526020015f205f8381526020019081526020015f20819055503373ffffffffffffffffffffffffffffffffffffffff16817ff2a0eb156472d1440255b0d7c1e19cc07115d1051fe605b0dce69acfec884d9c60405160405180910390a350565b5f6128bc8c8c8c8c8c8c8c8c8c8c8c6132ef565b8051906020012090509b9a5050505050505050505050565b6128dc613828565b5f73ffffffffffffffffffffffffffffffffffffffff168173ffffffffffffffffffffffffffffffffffffffff16141580156129455750600173ffffffffffffffffffffffffffffffffffffffff168173ffffffffffffffffffffffffffffffffffffffff1614155b612984576040517f08c379a000000000000000000000000000000000000000000000000000000000815260040161297b90615982565b60405180910390fd5b8073ffffffffffffffffffffffffffffffffffffffff1660015f8473ffffffffffffffffffffffffffffffffffffffff1673ffffffffffffffffffffffffffffffffffffffff1681526020019081526020015f205f9054906101000a900473ffffffffffffffffffffffffffffffffffffffff1673ffffffffffffffffffffffffffffffffffffffff1614612a4e576040517f08c379a0000000000000000000000000000000000000000000000000000000008152600401612a45906161a5565b60405180910390fd5b60015f8273ffffffffffffffffffffffffffffffffffffffff1673ffffffffffffffffffffffffffffffffffffffff1681526020019081526020015f205f9054906101000a900473ffffffffffffffffffffffffffffffffffffffff1660015f8473ffffffffffffffffffffffffffffffffffffffff1673ffffffffffffffffffffffffffffffffffffffff1681526020019081526020015f205f6101000a81548173ffffffffffffffffffffffffffffffffffffffff021916908373ffffffffffffffffffffffffffffffffffffffff1602179055505f60015f8373ffffffffffffffffffffffffffffffffffffffff1673ffffffffffffffffffffffffffffffffffffffff1681526020019081526020015f205f6101000a81548173ffffffffffffffffffffffffffffffffffffffff021916908373ffffffffffffffffffffffffffffffffffffffff1602179055508073ffffffffffffffffffffffffffffffffffffffff167faab4fa2b463f581b2b32cb3b7e3b704b9ce37cc209b5fb4d77e593ace405427660405160405180910390a25050565b612bef613828565b5f73ffffffffffffffffffffffffffffffffffffffff168173ffffffffffffffffffffffffffffffffffffffff1614612cfa578073ffffffffffffffffffffffffffffffffffffffff166301ffc9a77fe6d7a83a000000000000000000000000000000000000000000000000000000006040518263ffffffff1660e01b8152600401612c7b91906161d2565b602060405180830381865afa158015612c96573d5f803e3d5ffd5b505050506040513d601f19601f82011682018060405250810190612cba9190616215565b612cf9576040517f08c379a0000000000000000000000000000000000000000000000000000000008152600401612cf09061628a565b60405180910390fd5b5b5f7f4a204f620c8c5ccdca3fd54d003badd85ba500436a431f0cbda4f558c93c34c85f1b90508181558173ffffffffffffffffffffffffffffffffffffffff167f1151116914515bc0891ff9047a6cb32cf902546f83066499bcf8ba33d2353fa260405160405180910390a25050565b612d72613828565b5f73ffffffffffffffffffffffffffffffffffffffff168173ffffffffffffffffffffffffffffffffffffffff1614158015612ddb5750600173ffffffffffffffffffffffffffffffffffffffff168173ffffffffffffffffffffffffffffffffffffffff1614155b8015612e1357503073ffffffffffffffffffffffffffffffffffffffff168173ffffffffffffffffffffffffffffffffffffffff1614155b612e52576040517f08c379a0000000000000000000000000000000000000000000000000000000008152600401612e4990615275565b60405180910390fd5b5f73ffffffffffffffffffffffffffffffffffffffff1660025f8373ffffffffffffffffffffffffffffffffffffffff1673ffffffffffffffffffffffffffffffffffffffff1681526020019081526020015f205f9054906101000a900473ffffffffffffffffffffffffffffffffffffffff1673ffffffffffffffffffffffffffffffffffffffff1614612f1c576040517f08c379a0000000000000000000000000000000000000000000000000000000008152600401612f13906152dd565b60405180910390fd5b5f73ffffffffffffffffffffffffffffffffffffffff168273ffffffffffffffffffffffffffffffffffffffff1614158015612f855750600173ffffffffffffffffffffffffffffffffffffffff168273ffffffffffffffffffffffffffffffffffffffff1614155b612fc4576040517f08c379a0000000000000000000000000000000000000000000000000000000008152600401612fbb90615275565b60405180910390fd5b8173ffffffffffffffffffffffffffffffffffffffff1660025f8573ffffffffffffffffffffffffffffffffffffffff1673ffffffffffffffffffffffffffffffffffffffff1681526020019081526020015f205f9054906101000a900473ffffffffffffffffffffffffffffffffffffffff1673ffffffffffffffffffffffffffffffffffffffff161461308e576040517f08c379a0000000000000000000000000000000000000000000000000000000008152600401613085906162f2565b60405180910390fd5b60025f8373ffffffffffffffffffffffffffffffffffffffff1673ffffffffffffffffffffffffffffffffffffffff1681526020019081526020015f205f9054906101000a900473ffffffffffffffffffffffffffffffffffffffff1660025f8373ffffffffffffffffffffffffffffffffffffffff1673ffffffffffffffffffffffffffffffffffffffff1681526020019081526020015f205f6101000a81548173ffffffffffffffffffffffffffffffffffffffff021916908373ffffffffffffffffffffffffffffffffffffffff1602179055508060025f8573ffffffffffffffffffffffffffffffffffffffff1673ffffffffffffffffffffffffffffffffffffffff1681526020019081526020015f205f6101000a81548173ffffffffffffffffffffffffffffffffffffffff021916908373ffffffffffffffffffffffffffffffffffffffff1602179055505f60025f8473ffffffffffffffffffffffffffffffffffffffff1673ffffffffffffffffffffffffffffffffffffffff1681526020019081526020015f205f6101000a81548173ffffffffffffffffffffffffffffffffffffffff021916908373ffffffffffffffffffffffffffffffffffffffff1602179055508173ffffffffffffffffffffffffffffffffffffffff167ff8d49fc529812e9a7c5c50e69c20f0dccc0db8fa95c98bc58cc9a4f1c1299eaf60405160405180910390a28073ffffffffffffffffffffffffffffffffffffffff167f9465fa0c962cc76958e6373a993326400c1c94f8be2fe3a952adfa7f60b2ea2660405160405180910390a2505050565b5f600454905090565b60605f7fbb8310d486368db6bd6f849402fdd73ad53d316b5a4b2644ad6efe0f941286d85f1b8d8d8d8d60405161332792919061633e565b60405180910390208c8c8c8c8c8c8c6040516020016133509b9a99989796959493929190616356565b604051602081830303815290604052805190602001209050601960f81b600160f81b61337a613406565b8360405160200161338e949392919061644a565b6040516020818303038152906040529150509b9a5050505050505050505050565b6133b7613828565b6133c08161413b565b8073ffffffffffffffffffffffffffffffffffffffff167f5ac6c46c93c8d0e53714ba3b53db3e7c046da994313d7ed0d192028bc7c228b060405160405180910390a250565b5f7f47e79534a245952e8b16893a336b85a3d9ea9fa8c573f3d803afb92a794692185f1b61343261138c565b30604051602001613445939291906164f2565b60405160208183030381529060405280519060200120905090565b613468613828565b8060016003546134789190615d37565b10156134b9576040517f08c379a00000000000000000000000000000000000000000000000000000000081526004016134b090615a52565b60405180910390fd5b5f73ffffffffffffffffffffffffffffffffffffffff168273ffffffffffffffffffffffffffffffffffffffff16141580156135225750600173ffffffffffffffffffffffffffffffffffffffff168273ffffffffffffffffffffffffffffffffffffffff1614155b613561576040517f08c379a000000000000000000000000000000000000000000000000000000000815260040161355890615275565b60405180910390fd5b8173ffffffffffffffffffffffffffffffffffffffff1660025f8573ffffffffffffffffffffffffffffffffffffffff1673ffffffffffffffffffffffffffffffffffffffff1681526020019081526020015f205f9054906101000a900473ffffffffffffffffffffffffffffffffffffffff1673ffffffffffffffffffffffffffffffffffffffff161461362b576040517f08c379a0000000000000000000000000000000000000000000000000000000008152600401613622906162f2565b60405180910390fd5b60025f8373ffffffffffffffffffffffffffffffffffffffff1673ffffffffffffffffffffffffffffffffffffffff1681526020019081526020015f205f9054906101000a900473ffffffffffffffffffffffffffffffffffffffff1660025f8573ffffffffffffffffffffffffffffffffffffffff1673ffffffffffffffffffffffffffffffffffffffff1681526020019081526020015f205f6101000a81548173ffffffffffffffffffffffffffffffffffffffff021916908373ffffffffffffffffffffffffffffffffffffffff1602179055505f60025f8473ffffffffffffffffffffffffffffffffffffffff1673ffffffffffffffffffffffffffffffffffffffff1681526020019081526020015f205f6101000a81548173ffffffffffffffffffffffffffffffffffffffff021916908373ffffffffffffffffffffffffffffffffffffffff16021790555060035f81548092919061378f90616527565b91905055508173ffffffffffffffffffffffffffffffffffffffff167ff8d49fc529812e9a7c5c50e69c20f0dccc0db8fa95c98bc58cc9a4f1c1299eaf60405160405180910390a280600454146137ea576137e981611953565b5b505050565b6040518060400160405280600581526020017f312e342e3100000000000000000000000000000000000000000000000000000081525081565b3073ffffffffffffffffffffffffffffffffffffffff163373ffffffffffffffffffffffffffffffffffffffff1614613896576040517f08c379a000000000000000000000000000000000000000000000000000000000815260040161388d90616598565b60405180910390fd5b565b5f8083036138a8575f90506138d2565b5f82846138b591906158f7565b90508284826138c49190615c9f565b146138cd575f80fd5b809150505b92915050565b5f805f8360410260208101860151925060408101860151915060ff60418201870151169350509250925092565b5f8082846139139190615c3f565b905083811015613921575f80fd5b8091505092915050565b5f60018081111561393f5761393e615b04565b5b83600181111561395257613951615b04565b5b03613969575f808551602087018986f49050613978565b5f80855160208701888a87f190505b95945050505050565b5f807f4a204f620c8c5ccdca3fd54d003badd85ba500436a431f0cbda4f558c93c34c85f1b9050805491505090565b5f818310156139bf57816139c1565b825b905092915050565b5f828211156139d6575f80fd5b5f82846139e39190615d37565b90508091505092915050565b5f805f73ffffffffffffffffffffffffffffffffffffffff168373ffffffffffffffffffffffffffffffffffffffff1614613a2a5782613a2c565b325b90505f73ffffffffffffffffffffffffffffffffffffffff168473ffffffffffffffffffffffffffffffffffffffff1603613b0e57613a943a8610613a71573a613a73565b855b613a86888a61390590919063ffffffff16565b61389890919063ffffffff16565b91508073ffffffffffffffffffffffffffffffffffffffff166108fc8390811502906040515f60405180830381858888f19350505050613b09576040517f08c379a0000000000000000000000000000000000000000000000000000000008152600401613b0090616600565b60405180910390fd5b613b80565b613b3385613b25888a61390590919063ffffffff16565b61389890919063ffffffff16565b9150613b4084828461440a565b613b7f576040517f08c379a0000000000000000000000000000000000000000000000000000000008152600401613b7690616668565b60405180910390fd5b5b5095945050505050565b6040517f08c379a00000000000000000000000000000000000000000000000000000000081526020600482015260056024820152816044820152606481fd5b5f805f73ffffffffffffffffffffffffffffffffffffffff168373ffffffffffffffffffffffffffffffffffffffff1614613c045782613c06565b325b90505f73ffffffffffffffffffffffffffffffffffffffff168473ffffffffffffffffffffffffffffffffffffffff1603613cd757613c6e3a8610613c4b573a613c4d565b855b613c60888a61390590919063ffffffff16565b61389890919063ffffffff16565b91508073ffffffffffffffffffffffffffffffffffffffff166108fc8390811502906040515f60405180830381858888f19350505050613cd257613cd17f4753303131000000000000000000000000000000000000000000000000000000613b8a565b5b613d38565b613cfc85613cee888a61390590919063ffffffff16565b61389890919063ffffffff16565b9150613d0984828461440a565b613d3757613d367f4753303132000000000000000000000000000000000000000000000000000000613b8a565b5b5b5095945050505050565b5f60045414613d86576040517f08c379a0000000000000000000000000000000000000000000000000000000008152600401613d7d906166d0565b60405180910390fd5b8151811115613dca576040517f08c379a0000000000000000000000000000000000000000000000000000000008152600401613dc190615a52565b60405180910390fd5b6001811015613e0e576040517f08c379a0000000000000000000000000000000000000000000000000000000008152600401613e0590615aba565b60405180910390fd5b5f600190505f5b83518110156140aa575f848281518110613e3257613e31615f24565b5b602002602001015190505f73ffffffffffffffffffffffffffffffffffffffff168173ffffffffffffffffffffffffffffffffffffffff1614158015613ea55750600173ffffffffffffffffffffffffffffffffffffffff168173ffffffffffffffffffffffffffffffffffffffff1614155b8015613edd57503073ffffffffffffffffffffffffffffffffffffffff168173ffffffffffffffffffffffffffffffffffffffff1614155b8015613f1557508073ffffffffffffffffffffffffffffffffffffffff168373ffffffffffffffffffffffffffffffffffffffff1614155b613f54576040517f08c379a0000000000000000000000000000000000000000000000000000000008152600401613f4b90615275565b60405180910390fd5b5f73ffffffffffffffffffffffffffffffffffffffff1660025f8373ffffffffffffffffffffffffffffffffffffffff1673ffffffffffffffffffffffffffffffffffffffff1681526020019081526020015f205f9054906101000a900473ffffffffffffffffffffffffffffffffffffffff1673ffffffffffffffffffffffffffffffffffffffff161461401e576040517f08c379a0000000000000000000000000000000000000000000000000000000008152600401614015906152dd565b60405180910390fd5b8060025f8573ffffffffffffffffffffffffffffffffffffffff1673ffffffffffffffffffffffffffffffffffffffff1681526020019081526020015f205f6101000a81548173ffffffffffffffffffffffffffffffffffffffff021916908373ffffffffffffffffffffffffffffffffffffffff160217905550809250508080600101915050613e15565b50600160025f8373ffffffffffffffffffffffffffffffffffffffff1673ffffffffffffffffffffffffffffffffffffffff1681526020019081526020015f205f6101000a81548173ffffffffffffffffffffffffffffffffffffffff021916908373ffffffffffffffffffffffffffffffffffffffff160217905550825160038190555081600481905550505050565b3073ffffffffffffffffffffffffffffffffffffffff168173ffffffffffffffffffffffffffffffffffffffff16036141a9576040517f08c379a00000000000000000000000000000000000000000000000000000000081526004016141a090616738565b60405180910390fd5b5f7f6c9a6c4a39284e37ed1cf53d337577d14212a4870fb976a4366c693b939918d55f1b90508181555050565b5f73ffffffffffffffffffffffffffffffffffffffff1660015f600173ffffffffffffffffffffffffffffffffffffffff1673ffffffffffffffffffffffffffffffffffffffff1681526020019081526020015f205f9054906101000a900473ffffffffffffffffffffffffffffffffffffffff1673ffffffffffffffffffffffffffffffffffffffff16146142a1576040517f08c379a0000000000000000000000000000000000000000000000000000000008152600401614298906167a0565b60405180910390fd5b6001805f600173ffffffffffffffffffffffffffffffffffffffff1673ffffffffffffffffffffffffffffffffffffffff1681526020019081526020015f205f6101000a81548173ffffffffffffffffffffffffffffffffffffffff021916908373ffffffffffffffffffffffffffffffffffffffff1602179055505f73ffffffffffffffffffffffffffffffffffffffff168273ffffffffffffffffffffffffffffffffffffffff161461440657614359826144ac565b614398576040517f08c379a000000000000000000000000000000000000000000000000000000000815260040161438f90616808565b60405180910390fd5b6143c6825f8360017fffffffffffffffffffffffffffffffffffffffffffffffffffffffffffffffff61392b565b614405576040517f08c379a00000000000000000000000000000000000000000000000000000000081526004016143fc90616870565b60405180910390fd5b5b5050565b5f8063a9059cbb848460405160240161442492919061688e565b6040516020818303038152906040529060e01b6020820180517bffffffffffffffffffffffffffffffffffffffffffffffffffffffff8381831617835250505050905060205f8251602084015f896127105a03f13d5f81146144905760208114614498575f93506144a2565b8193506144a2565b5f51158215171593505b5050509392505050565b5f80823b90505f8111915050919050565b5f819050919050565b6144cf816144bd565b82525050565b5f6020820190506144e85f8301846144c6565b92915050565b5f604051905090565b5f80fd5b5f80fd5b5f73ffffffffffffffffffffffffffffffffffffffff82169050919050565b5f614528826144ff565b9050919050565b6145388161451e565b8114614542575f80fd5b50565b5f813590506145538161452f565b92915050565b614562816144bd565b811461456c575f80fd5b50565b5f8135905061457d81614559565b92915050565b5f8060408385031215614599576145986144f7565b5b5f6145a685828601614545565b92505060206145b78582860161456f565b9150509250929050565b5f819050919050565b6145d3816145c1565b81146145dd575f80fd5b50565b5f813590506145ee816145ca565b92915050565b5f80fd5b5f80fd5b5f601f19601f8301169050919050565b7f4e487b71000000000000000000000000000000000000000000000000000000005f52604160045260245ffd5b614642826145fc565b810181811067ffffffffffffffff821117156146615761466061460c565b5b80604052505050565b5f6146736144ee565b905061467f8282614639565b919050565b5f67ffffffffffffffff82111561469e5761469d61460c565b5b6146a7826145fc565b9050602081019050919050565b828183375f83830152505050565b5f6146d46146cf84614684565b61466a565b9050828152602081018484840111156146f0576146ef6145f8565b5b6146fb8482856146b4565b509392505050565b5f82601f830112614717576147166145f4565b5b81356147278482602086016146c2565b91505092915050565b5f805f8060808587031215614748576147476144f7565b5b5f614755878288016145e0565b945050602085013567ffffffffffffffff811115614776576147756144fb565b5b61478287828801614703565b935050604085013567ffffffffffffffff8111156147a3576147a26144fb565b5b6147af87828801614703565b92505060606147c08782880161456f565b91505092959194509250565b5f602082840312156147e1576147e06144f7565b5b5f6147ee84828501614545565b91505092915050565b5f8115159050919050565b61480b816147f7565b82525050565b5f6020820190506148245f830184614802565b92915050565b60028110614836575f80fd5b50565b5f813590506148478161482a565b92915050565b5f805f8060808587031215614865576148646144f7565b5b5f61487287828801614545565b94505060206148838782880161456f565b935050604085013567ffffffffffffffff8111156148a4576148a36144fb565b5b6148b087828801614703565b92505060606148c187828801614839565b91505092959194509250565b5f81519050919050565b5f82825260208201905092915050565b5f5b838110156149045780820151818401526020810190506148e9565b5f8484015250505050565b5f614919826148cd565b61492381856148d7565b93506149338185602086016148e7565b61493c816145fc565b840191505092915050565b5f60408201905061495a5f830185614802565b818103602083015261496c818461490f565b90509392505050565b5f806040838503121561498b5761498a6144f7565b5b5f6149988582860161456f565b92505060206149a98582860161456f565b9150509250929050565b5f6020820190508181035f8301526149cb818461490f565b905092915050565b5f602082840312156149e8576149e76144f7565b5b5f6149f5848285016145e0565b91505092915050565b5f60208284031215614a1357614a126144f7565b5b5f614a208482850161456f565b91505092915050565b5f80fd5b5f80fd5b5f8083601f840112614a4657614a456145f4565b5b8235905067ffffffffffffffff811115614a6357614a62614a29565b5b602083019150836001820283011115614a7f57614a7e614a2d565b5b9250929050565b5f614a90826144ff565b9050919050565b614aa081614a86565b8114614aaa575f80fd5b50565b5f81359050614abb81614a97565b92915050565b5f805f805f805f805f805f6101408c8e031215614ae157614ae06144f7565b5b5f614aee8e828f01614545565b9b50506020614aff8e828f0161456f565b9a505060408c013567ffffffffffffffff811115614b2057614b1f6144fb565b5b614b2c8e828f01614a31565b99509950506060614b3f8e828f01614839565b9750506080614b508e828f0161456f565b96505060a0614b618e828f0161456f565b95505060c0614b728e828f0161456f565b94505060e0614b838e828f01614545565b935050610100614b958e828f01614aad565b9250506101208c013567ffffffffffffffff811115614bb757614bb66144fb565b5b614bc38e828f01614703565b9150509295989b509295989b9093969950565b5f8060408385031215614bec57614beb6144f7565b5b5f614bf985828601614545565b9250506020614c0a858286016145e0565b9150509250929050565b5f80fd5b5f6101408284031215614c2e57614c2d614c14565b5b81905092915050565b5f60208284031215614c4c57614c4b6144f7565b5b5f82013567ffffffffffffffff811115614c6957614c686144fb565b5b614c7584828501614c18565b91505092915050565b5f805f60608486031215614c9557614c946144f7565b5b5f614ca2868287016145e0565b935050602084013567ffffffffffffffff811115614cc357614cc26144fb565b5b614ccf86828701614703565b925050604084013567ffffffffffffffff811115614cf057614cef6144fb565b5b614cfc86828701614703565b9150509250925092565b5f81519050919050565b5f82825260208201905092915050565b5f819050602082019050919050565b614d388161451e565b82525050565b5f614d498383614d2f565b60208301905092915050565b5f602082019050919050565b5f614d6b82614d06565b614d758185614d10565b9350614d8083614d20565b805f5b83811015614db0578151614d978882614d3e565b9750614da283614d55565b925050600181019050614d83565b5085935050505092915050565b5f6020820190508181035f830152614dd58184614d61565b905092915050565b5f8060408385031215614df357614df26144f7565b5b5f614e0085828601614545565b925050602083013567ffffffffffffffff811115614e2157614e206144fb565b5b614e2d85828601614703565b9150509250929050565b5f8083601f840112614e4c57614e4b6145f4565b5b8235905067ffffffffffffffff811115614e6957614e68614a29565b5b602083019150836020820283011115614e8557614e84614a2d565b5b9250929050565b5f805f805f805f805f806101008b8d031215614eab57614eaa6144f7565b5b5f8b013567ffffffffffffffff811115614ec857614ec76144fb565b5b614ed48d828e01614e37565b9a509a50506020614ee78d828e0161456f565b9850506040614ef88d828e01614545565b97505060608b013567ffffffffffffffff811115614f1957614f186144fb565b5b614f258d828e01614a31565b96509650506080614f388d828e01614545565b94505060a0614f498d828e01614545565b93505060c0614f5a8d828e0161456f565b92505060e0614f6b8d828e01614aad565b9150509295989b9194979a5092959850565b614f868161451e565b82525050565b5f6040820190508181035f830152614fa48185614d61565b9050614fb36020830184614f7d565b9392505050565b5f805f805f805f805f805f6101408c8e031215614fda57614fd96144f7565b5b5f614fe78e828f01614545565b9b50506020614ff88e828f0161456f565b9a505060408c013567ffffffffffffffff811115615019576150186144fb565b5b6150258e828f01614a31565b995099505060606150388e828f01614839565b97505060806150498e828f0161456f565b96505060a061505a8e828f0161456f565b95505060c061506b8e828f0161456f565b94505060e061507c8e828f01614545565b93505061010061508e8e828f01614545565b9250506101206150a08e828f0161456f565b9150509295989b509295989b9093969950565b6150bc816145c1565b82525050565b5f6020820190506150d55f8301846150b3565b92915050565b5f80604083850312156150f1576150f06144f7565b5b5f6150fe85828601614545565b925050602061510f85828601614545565b9150509250929050565b5f805f606084860312156151305761512f6144f7565b5b5f61513d86828701614545565b935050602061514e86828701614545565b925050604061515f86828701614545565b9150509250925092565b5f805f606084860312156151805761517f6144f7565b5b5f61518d86828701614545565b935050602061519e86828701614545565b92505060406151af8682870161456f565b9150509250925092565b5f81519050919050565b5f82825260208201905092915050565b5f6151dd826151b9565b6151e781856151c3565b93506151f78185602086016148e7565b615200816145fc565b840191505092915050565b5f6020820190508181035f83015261522381846151d3565b905092915050565b7f47533230330000000000000000000000000000000000000000000000000000005f82015250565b5f61525f6005836151c3565b915061526a8261522b565b602082019050919050565b5f6020820190508181035f83015261528c81615253565b9050919050565b7f47533230340000000000000000000000000000000000000000000000000000005f82015250565b5f6152c76005836151c3565b91506152d282615293565b602082019050919050565b5f6020820190508181035f8301526152f4816152bb565b9050919050565b7f4e487b71000000000000000000000000000000000000000000000000000000005f52601160045260245ffd5b5f615332826144bd565b91507fffffffffffffffffffffffffffffffffffffffffffffffffffffffffffffffff8203615364576153636152fb565b5b600182019050919050565b7f47533032300000000000000000000000000000000000000000000000000000005f82015250565b5f6153a36005836151c3565b91506153ae8261536f565b602082019050919050565b5f6020820190508181035f8301526153d081615397565b9050919050565b7f47533032370000000000000000000000000000000000000000000000000000005f82015250565b5f61540b6005836151c3565b9150615416826153d7565b602082019050919050565b5f6020820190508181035f830152615438816153ff565b9050919050565b7f47533032310000000000000000000000000000000000000000000000000000005f82015250565b5f6154736005836151c3565b915061547e8261543f565b602082019050919050565b5f6020820190508181035f8301526154a081615467565b9050919050565b7f47533032320000000000000000000000000000000000000000000000000000005f82015250565b5f6154db6005836151c3565b91506154e6826154a7565b602082019050919050565b5f6020820190508181035f830152615508816154cf565b9050919050565b7f47533032330000000000000000000000000000000000000000000000000000005f82015250565b5f6155436005836151c3565b915061554e8261550f565b602082019050919050565b5f6020820190508181035f83015261557081615537565b9050919050565b5f6040820190508181035f83015261558f818561490f565b905081810360208301526155a3818461490f565b90509392505050565b5f7fffffffff0000000000000000000000000000000000000000000000000000000082169050919050565b6155e0816155ac565b81146155ea575f80fd5b50565b5f815190506155fb816155d7565b92915050565b5f60208284031215615616576156156144f7565b5b5f615623848285016155ed565b91505092915050565b7f47533032340000000000000000000000000000000000000000000000000000005f82015250565b5f6156606005836151c3565b915061566b8261562c565b602082019050919050565b5f6020820190508181035f83015261568d81615654565b9050919050565b7f47533032350000000000000000000000000000000000000000000000000000005f82015250565b5f6156c86005836151c3565b91506156d382615694565b602082019050919050565b5f6020820190508181035f8301526156f5816156bc565b9050919050565b5f81905092915050565b7f19457468657265756d205369676e6564204d6573736167653a0a3332000000005f82015250565b5f61573a601c836156fc565b915061574582615706565b601c82019050919050565b5f819050919050565b61576a615765826145c1565b615750565b82525050565b5f61577a8261572e565b91506157868284615759565b60208201915081905092915050565b5f60ff82169050919050565b5f6157ab82615795565b91506157b683615795565b9250828203905060ff8111156157cf576157ce6152fb565b5b92915050565b6157de81615795565b82525050565b5f6080820190506157f75f8301876150b3565b61580460208301866157d5565b61581160408301856150b3565b61581e60608301846150b3565b95945050505050565b7f47533032360000000000000000000000000000000000000000000000000000005f82015250565b5f61585b6005836151c3565b915061586682615827565b602082019050919050565b5f6020820190508181035f8301526158888161584f565b9050919050565b7f47533130340000000000000000000000000000000000000000000000000000005f82015250565b5f6158c36005836151c3565b91506158ce8261588f565b602082019050919050565b5f6020820190508181035f8301526158f0816158b7565b9050919050565b5f615901826144bd565b915061590c836144bd565b925082820261591a816144bd565b91508282048414831517615931576159306152fb565b5b5092915050565b7f47533130310000000000000000000000000000000000000000000000000000005f82015250565b5f61596c6005836151c3565b915061597782615938565b602082019050919050565b5f6020820190508181035f83015261599981615960565b9050919050565b7f47533130320000000000000000000000000000000000000000000000000000005f82015250565b5f6159d46005836151c3565b91506159df826159a0565b602082019050919050565b5f6020820190508181035f830152615a01816159c8565b9050919050565b7f47533230310000000000000000000000000000000000000000000000000000005f82015250565b5f615a3c6005836151c3565b9150615a4782615a08565b602082019050919050565b5f6020820190508181035f830152615a6981615a30565b9050919050565b7f47533230320000000000000000000000000000000000000000000000000000005f82015250565b5f615aa46005836151c3565b9150615aaf82615a70565b602082019050919050565b5f6020820190508181035f830152615ad181615a98565b9050919050565b5f615ae383856148d7565b9350615af08385846146b4565b615af9836145fc565b840190509392505050565b7f4e487b71000000000000000000000000000000000000000000000000000000005f52602160045260245ffd5b60028110615b4257615b41615b04565b5b50565b5f819050615b5282615b31565b919050565b5f615b6182615b45565b9050919050565b615b7181615b57565b82525050565b615b8081614a86565b82525050565b5f61016082019050615b9a5f83018f614f7d565b615ba7602083018e6144c6565b8181036040830152615bba818c8e615ad8565b9050615bc9606083018b615b68565b615bd6608083018a6144c6565b615be360a08301896144c6565b615bf060c08301886144c6565b615bfd60e0830187614f7d565b615c0b610100830186615b77565b818103610120830152615c1e818561490f565b9050615c2e610140830184614f7d565b9d9c50505050505050505050505050565b5f615c49826144bd565b9150615c54836144bd565b9250828201905080821115615c6c57615c6b6152fb565b5b92915050565b7f4e487b71000000000000000000000000000000000000000000000000000000005f52601260045260245ffd5b5f615ca9826144bd565b9150615cb4836144bd565b925082615cc457615cc3615c72565b5b828204905092915050565b7f47533031300000000000000000000000000000000000000000000000000000005f82015250565b5f615d036005836151c3565b9150615d0e82615ccf565b602082019050919050565b5f6020820190508181035f830152615d3081615cf7565b9050919050565b5f615d41826144bd565b9150615d4c836144bd565b9250828203905081811115615d6457615d636152fb565b5b92915050565b7f47533031330000000000000000000000000000000000000000000000000000005f82015250565b5f615d9e6005836151c3565b9150615da982615d6a565b602082019050919050565b5f6020820190508181035f830152615dcb81615d92565b9050919050565b5f604082019050615de55f8301856150b3565b615df26020830184614802565b9392505050565b5f80fd5b5f80fd5b5f80fd5b5f8083356001602003843603038112615e2157615e20615df9565b5b80840192508235915067ffffffffffffffff821115615e4357615e42615dfd565b5b602083019250600182023603831315615e5f57615e5e615e01565b5b509250929050565b615e7081615795565b8114615e7a575f80fd5b50565b5f81359050615e8b81615e67565b92915050565b5f60208284031215615ea657615ea56144f7565b5b5f615eb384828501615e7d565b91505092915050565b7f47533030310000000000000000000000000000000000000000000000000000005f82015250565b5f615ef06005836151c3565b9150615efb82615ebc565b602082019050919050565b5f6020820190508181035f830152615f1d81615ee4565b9050919050565b7f4e487b71000000000000000000000000000000000000000000000000000000005f52603260045260245ffd5b5f819050919050565b5f615f686020840184614545565b905092915050565b5f602082019050919050565b5f615f878385614d10565b9350615f9282615f51565b805f5b85811015615fca57615fa78284615f5a565b615fb18882614d3e565b9750615fbc83615f70565b925050600181019050615f95565b5085925050509392505050565b5f6080820190508181035f830152615ff0818789615f7c565b9050615fff60208301866144c6565b61600c6040830185614f7d565b6160196060830184614f7d565b9695505050505050565b7f47533130350000000000000000000000000000000000000000000000000000005f82015250565b5f6160576005836151c3565b915061606282616023565b602082019050919050565b5f6020820190508181035f8301526160848161604b565b9050919050565b7f47533130360000000000000000000000000000000000000000000000000000005f82015250565b5f6160bf6005836151c3565b91506160ca8261608b565b602082019050919050565b5f6020820190508181035f8301526160ec816160b3565b9050919050565b7f47533033300000000000000000000000000000000000000000000000000000005f82015250565b5f6161276005836151c3565b9150616132826160f3565b602082019050919050565b5f6020820190508181035f8301526161548161611b565b9050919050565b7f47533130330000000000000000000000000000000000000000000000000000005f82015250565b5f61618f6005836151c3565b915061619a8261615b565b602082019050919050565b5f6020820190508181035f8301526161bc81616183565b9050919050565b6161cc816155ac565b82525050565b5f6020820190506161e55f8301846161c3565b92915050565b6161f4816147f7565b81146161fe575f80fd5b50565b5f8151905061620f816161eb565b92915050565b5f6020828403121561622a576162296144f7565b5b5f61623784828501616201565b91505092915050565b7f47533330300000000000000000000000000000000000000000000000000000005f82015250565b5f6162746005836151c3565b915061627f82616240565b602082019050919050565b5f6020820190508181035f8301526162a181616268565b9050919050565b7f47533230350000000000000000000000000000000000000000000000000000005f82015250565b5f6162dc6005836151c3565b91506162e7826162a8565b602082019050919050565b5f6020820190508181035f830152616309816162d0565b9050919050565b5f81905092915050565b5f6163258385616310565b93506163328385846146b4565b82840190509392505050565b5f61634a82848661631a565b91508190509392505050565b5f6101608201905061636a5f83018e6150b3565b616377602083018d614f7d565b616384604083018c6144c6565b616391606083018b6150b3565b61639e608083018a615b68565b6163ab60a08301896144c6565b6163b860c08301886144c6565b6163c560e08301876144c6565b6163d3610100830186614f7d565b6163e1610120830185614f7d565b6163ef6101408301846144c6565b9c9b505050505050505050505050565b5f7fff0000000000000000000000000000000000000000000000000000000000000082169050919050565b5f819050919050565b61644461643f826163ff565b61642a565b82525050565b5f6164558287616433565b6001820191506164658286616433565b6001820191506164758285615759565b6020820191506164858284615759565b60208201915081905095945050505050565b5f819050919050565b5f6164ba6164b56164b0846144ff565b616497565b6144ff565b9050919050565b5f6164cb826164a0565b9050919050565b5f6164dc826164c1565b9050919050565b6164ec816164d2565b82525050565b5f6060820190506165055f8301866150b3565b61651260208301856144c6565b61651f60408301846164e3565b949350505050565b5f616531826144bd565b91505f8203616543576165426152fb565b5b600182039050919050565b7f47533033310000000000000000000000000000000000000000000000000000005f82015250565b5f6165826005836151c3565b915061658d8261654e565b602082019050919050565b5f6020820190508181035f8301526165af81616576565b9050919050565b7f47533031310000000000000000000000000000000000000000000000000000005f82015250565b5f6165ea6005836151c3565b91506165f5826165b6565b602082019050919050565b5f6020820190508181035f830152616617816165de565b9050919050565b7f47533031320000000000000000000000000000000000000000000000000000005f82015250565b5f6166526005836151c3565b915061665d8261661e565b602082019050919050565b5f6020820190508181035f83015261667f81616646565b9050919050565b7f47533230300000000000000000000000000000000000000000000000000000005f82015250565b5f6166ba6005836151c3565b91506166c582616686565b602082019050919050565b5f6020820190508181035f8301526166e7816166ae565b9050919050565b7f47533430300000000000000000000000000000000000000000000000000000005f82015250565b5f6167226005836151c3565b915061672d826166ee565b602082019050919050565b5f6020820190508181035f83015261674f81616716565b9050919050565b7f47533130300000000000000000000000000000000000000000000000000000005f82015250565b5f61678a6005836151c3565b915061679582616756565b602082019050919050565b5f6020820190508181035f8301526167b78161677e565b9050919050565b7f47533030320000000000000000000000000000000000000000000000000000005f82015250565b5f6167f26005836151c3565b91506167fd826167be565b602082019050919050565b5f6020820190508181035f83015261681f816167e6565b9050919050565b7f47533030300000000000000000000000000000000000000000000000000000005f82015250565b5f61685a6005836151c3565b915061686582616826565b602082019050919050565b5f6020820190508181035f8301526168878161684e565b9050919050565b5f6040820190506168a15f830185614f7d565b6168ae60208301846144c6565b939250505056fea26469706673582212202f7c8117f2b7ddb0e04ccaa0f0e8ff275586a56b7382771f409247df58251cec64736f6c63430008180033","linkReferences":{}},"methodIdentifiers":{"VERSION()":"ffa1ad74","addOwnerWithThreshold(address,uint256)":"0d582f13","approveHash(bytes32)":"d4d9bdcd","approvedHashes(address,bytes32)":"7d832974","changeThreshold(uint256)":"694e80c3","checkNSignatures(bytes32,bytes,bytes,uint256)":"12fb68e0","checkSignatures(bytes32,bytes,bytes)":"934f3a11","disableModule(address,address)":"e009cfde","domainSeparator()":"f698da25","enableModule(address)":"610b5925","encodeTransactionData(address,uint256,bytes,uint8,uint256,uint256,uint256,address,address,uint256)":"e86637db","execTransaction((address,uint256,bytes,uint8,uint256,uint256,uint256,address,address,uint256))":"807cd28f","execTransaction(address,uint256,bytes,uint8,uint256,uint256,uint256,address,address,bytes)":"6a761202","execTransactionFromModule(address,uint256,bytes,uint8)":"468721a7","execTransactionFromModuleReturnData(address,uint256,bytes,uint8)":"5229073f","getChainId()":"3408e470","getModulesPaginated(address,uint256)":"cc2f8452","getOwners()":"a0e67e2b","getStorageAt(uint256,uint256)":"5624b25b","getThreshold()":"e75235b8","getTransactionHash(address,uint256,bytes,uint8,uint256,uint256,uint256,address,address,uint256)":"d8d11f78","isModuleEnabled(address)":"2d9ad53d","isOwner(address)":"2f54bf6e","nonce()":"affed0e0","removeOwner(address,address,uint256)":"f8dc5dd9","setFallbackHandler(address)":"f08a0323","setGuard(address)":"e19a9dd9","setup(address[],uint256,address,bytes,address,address,uint256,address)":"b63e800d","signedMessages(bytes32)":"5ae6bd37","simulateAndRevert(address,bytes)":"b4faba09","swapOwner(address,address,address)":"e318b52b"},"id":39}