{"abi":[{"type":"constructor","inputs":[{"name":"_siglessTransactionExecutor","type":"address","internalType":"address"}],"stateMutability":"nonpayable"},{"type":"function","name":"SIGLESS_TRANSACTION_EXECUTOR","inputs":[],"outputs":[{"name":"","type":"address","internalType":"address"}],"stateMutability":"view"},{"type":"function","name":"VERSION","inputs":[],"outputs":[{"name":"","type":"string","internalType":"string"}],"stateMutability":"view"},{"type":"function","name":"domainSeparator","inputs":[],"outputs":[{"name":"","type":"bytes32","internalType":"bytes32"}],"stateMutability":"view"},{"type":"function","name":"encodeTransactionBatchData","inputs":[{"name":"safeTxBatch","type":"tuple","internalType":"struct MultiChainSignaturesModule.SafeTxBatch","components":[{"name":"safeTxs","type":"tuple[]","internalType":"struct ISafeTx.SafeTx[]","components":[{"name":"to","type":"address","internalType":"address"},{"name":"value","type":"uint256","internalType":"uint256"},{"name":"data","type":"bytes","internalType":"bytes"},{"name":"operation","type":"uint8","internalType":"uint8"},{"name":"safeTxGas","type":"uint256","internalType":"uint256"},{"name":"baseGas","type":"uint256","internalType":"uint256"},{"name":"gasPrice","type":"uint256","internalType":"uint256"},{"name":"gasToken","type":"address","internalType":"address"},{"name":"refundReceiver","type":"address","internalType":"address"},{"name":"nonce","type":"uint256","internalType":"uint256"}]},{"name":"chainIds","type":"uint256[]","internalType":"uint256[]"}]}],"outputs":[{"name":"","type":"bytes","internalType":"bytes"}],"stateMutability":"view"},{"type":"function","name":"execTransactionBatch","inputs":[{"name":"account","type":"address","internalType":"address"},{"name":"safeTxBatch","type":"tuple","internalType":"struct MultiChainSignaturesModule.SafeTxBatch","components":[{"name":"safeTxs","type":"tuple[]","internalType":"struct ISafeTx.SafeTx[]","components":[{"name":"to","type":"address","internalType":"address"},{"name":"value","type":"uint256","internalType":"uint256"},{"name":"data","type":"bytes","internalType":"bytes"},{"name":"operation","type":"uint8","internalType":"uint8"},{"name":"safeTxGas","type":"uint256","internalType":"uint256"},{"name":"baseGas","type":"uint256","internalType":"uint256"},{"name":"gasPrice","type":"uint256","internalType":"uint256"},{"name":"gasToken","type":"address","internalType":"address"},{"name":"refundReceiver","type":"address","internalType":"address"},{"name":"nonce","type":"uint256","internalType":"uint256"}]},{"name":"chainIds","type":"uint256[]","internalType":"uint256[]"}]},{"name":"signatures","type":"bytes","internalType":"bytes"}],"outputs":[{"name":"","type":"bool","internalType":"bool"}],"stateMutability":"nonpayable"}],"bytecode":{"object":"0x60a060405234801562000010575f80fd5b5060405162001616380380620016168339818101604052810190620000369190620000d6565b8073ffffffffffffffffffffffffffffffffffffffff1660808173ffffffffffffffffffffffffffffffffffffffff16815250505062000106565b5f80fd5b5f73ffffffffffffffffffffffffffffffffffffffff82169050919050565b5f620000a08262000075565b9050919050565b620000b28162000094565b8114620000bd575f80fd5b50565b5f81519050620000d081620000a7565b92915050565b5f60208284031215620000ee57620000ed62000071565b5b5f620000fd84828501620000c0565b91505092915050565b6080516114f0620001265f395f8181610115015261021d01526114f05ff3fe608060405234801561000f575f80fd5b5060043610610055575f3560e01c806315858c2614610059578063d02372a914610077578063e8c032a7146100a7578063f698da25146100d7578063ffa1ad74146100f5575b5f80fd5b610061610113565b60405161006e91906106e5565b60405180910390f35b610091600480360381019061008c91906107b3565b610137565b60405161009e919061085a565b60405180910390f35b6100c160048036038101906100bc9190610873565b61036b565b6040516100ce9190610944565b60405180910390f35b6100df610619565b6040516100ec919061097c565b60405180910390f35b6100fd61066d565b60405161010a91906109e7565b60405180910390f35b7f000000000000000000000000000000000000000000000000000000000000000081565b5f806101428561036b565b90508573ffffffffffffffffffffffffffffffffffffffff1663934f3a1182805190602001208387876040518563ffffffff1660e01b815260040161018a9493929190610a41565b5f6040518083038186803b1580156101a0575f80fd5b505afa1580156101b2573d5f803e3d5ffd5b505050505f805b86805f01906101c89190610a92565b905081101561035c57468780602001906101e29190610af4565b838181106101f3576101f2610b56565b5b905060200201350361034f578773ffffffffffffffffffffffffffffffffffffffff1663468721a77f00000000000000000000000000000000000000000000000000000000000000005f63807cd28f60e01b8b805f01906102549190610a92565b8781811061026557610264610b56565b5b90506020028101906102779190610b83565b6040516024016102879190610e56565b604051602081830303815290604052907bffffffffffffffffffffffffffffffffffffffffffffffffffffffff19166020820180517bffffffffffffffffffffffffffffffffffffffffffffffffffffffff838183161783525050505060016040518563ffffffff1660e01b81526004016103059493929190610f2b565b6020604051808303815f875af1158015610321573d5f803e3d5ffd5b505050506040513d601f19601f820116820180604052508101906103459190610f9f565b61034e57600191505b5b80806001019150506101b9565b50801592505050949350505050565b60605f82805f019061037d9190610a92565b905067ffffffffffffffff81111561039857610397610fca565b5b6040519080825280602002602001820160405280156103c65781602001602082028036833780820191505090505b5090505f5b83805f01906103da9190610a92565b9050811015610524573684805f01906103f39190610a92565b8381811061040457610403610b56565b5b90506020028101906104169190610b83565b90507fbb8310d486368db6bd6f849402fdd73ad53d316b5a4b2644ad6efe0f941286d85f1b815f01602081019061044d9190610ff7565b82602001358380604001906104629190611022565b6040516104709291906110b2565b604051809103902084606001602081019061048b91906110ca565b85608001358660a001358760c001358860e00160208101906104ad9190610ff7565b896101000160208101906104c19190610ff7565b8a61012001356040516020016104e19b9a99989796959493929190611113565b6040516020818303038152906040528051906020012083838151811061050a57610509610b56565b5b6020026020010181815250505080806001019150506103cb565b505f81604051602001610537919061126d565b6040516020818303038152906040528051906020012090505f8480602001906105609190610af4565b6040516020016105719291906112f5565b6040516020818303038152906040528051906020012090505f7f380edc5493295a56ffff58d3918c1c94a127a863c855db293ab15a2b63f059225f1b83836040516020016105c19392919061130d565b604051602081830303815290604052805190602001209050601960f81b600160f81b6105eb610619565b836040516020016105ff94939291906113ad565b604051602081830303815290604052945050505050919050565b5f7f47e79534a245952e8b16893a336b85a3d9ea9fa8c573f3d803afb92a794692185f1b60013060405160200161065293929190611485565b60405160208183030381529060405280519060200120905090565b6040518060400160405280600a81526020017f312e342e312d4d43534d0000000000000000000000000000000000000000000081525081565b5f73ffffffffffffffffffffffffffffffffffffffff82169050919050565b5f6106cf826106a6565b9050919050565b6106df816106c5565b82525050565b5f6020820190506106f85f8301846106d6565b92915050565b5f80fd5b5f80fd5b61070f816106c5565b8114610719575f80fd5b50565b5f8135905061072a81610706565b92915050565b5f80fd5b5f6040828403121561074957610748610730565b5b81905092915050565b5f80fd5b5f80fd5b5f80fd5b5f8083601f84011261077357610772610752565b5b8235905067ffffffffffffffff8111156107905761078f610756565b5b6020830191508360018202830111156107ac576107ab61075a565b5b9250929050565b5f805f80606085870312156107cb576107ca6106fe565b5b5f6107d88782880161071c565b945050602085013567ffffffffffffffff8111156107f9576107f8610702565b5b61080587828801610734565b935050604085013567ffffffffffffffff81111561082657610825610702565b5b6108328782880161075e565b925092505092959194509250565b5f8115159050919050565b61085481610840565b82525050565b5f60208201905061086d5f83018461084b565b92915050565b5f60208284031215610888576108876106fe565b5b5f82013567ffffffffffffffff8111156108a5576108a4610702565b5b6108b184828501610734565b91505092915050565b5f81519050919050565b5f82825260208201905092915050565b5f5b838110156108f15780820151818401526020810190506108d6565b5f8484015250505050565b5f601f19601f8301169050919050565b5f610916826108ba565b61092081856108c4565b93506109308185602086016108d4565b610939816108fc565b840191505092915050565b5f6020820190508181035f83015261095c818461090c565b905092915050565b5f819050919050565b61097681610964565b82525050565b5f60208201905061098f5f83018461096d565b92915050565b5f81519050919050565b5f82825260208201905092915050565b5f6109b982610995565b6109c3818561099f565b93506109d38185602086016108d4565b6109dc816108fc565b840191505092915050565b5f6020820190508181035f8301526109ff81846109af565b905092915050565b828183375f83830152505050565b5f610a2083856108c4565b9350610a2d838584610a07565b610a36836108fc565b840190509392505050565b5f606082019050610a545f83018761096d565b8181036020830152610a66818661090c565b90508181036040830152610a7b818486610a15565b905095945050505050565b5f80fd5b5f80fd5b5f80fd5b5f8083356001602003843603038112610aae57610aad610a86565b5b80840192508235915067ffffffffffffffff821115610ad057610acf610a8a565b5b602083019250602082023603831315610aec57610aeb610a8e565b5b509250929050565b5f8083356001602003843603038112610b1057610b0f610a86565b5b80840192508235915067ffffffffffffffff821115610b3257610b31610a8a565b5b602083019250602082023603831315610b4e57610b4d610a8e565b5b509250929050565b7f4e487b71000000000000000000000000000000000000000000000000000000005f52603260045260245ffd5b5f8235600161014003833603038112610b9f57610b9e610a86565b5b80830191505092915050565b5f610bb9602084018461071c565b905092915050565b610bca816106c5565b82525050565b5f819050919050565b610be281610bd0565b8114610bec575f80fd5b50565b5f81359050610bfd81610bd9565b92915050565b5f610c116020840184610bef565b905092915050565b610c2281610bd0565b82525050565b5f80fd5b5f80fd5b5f80fd5b5f8083356001602003843603038112610c5057610c4f610c30565b5b83810192508235915060208301925067ffffffffffffffff821115610c7857610c77610c28565b5b600182023603831315610c8e57610c8d610c2c565b5b509250929050565b5f82825260208201905092915050565b5f610cb18385610c96565b9350610cbe838584610a07565b610cc7836108fc565b840190509392505050565b5f60ff82169050919050565b610ce781610cd2565b8114610cf1575f80fd5b50565b5f81359050610d0281610cde565b92915050565b5f610d166020840184610cf4565b905092915050565b610d2781610cd2565b82525050565b5f6101408301610d3f5f840184610bab565b610d4b5f860182610bc1565b50610d596020840184610c03565b610d666020860182610c19565b50610d746040840184610c34565b8583036040870152610d87838284610ca6565b92505050610d986060840184610d08565b610da56060860182610d1e565b50610db36080840184610c03565b610dc06080860182610c19565b50610dce60a0840184610c03565b610ddb60a0860182610c19565b50610de960c0840184610c03565b610df660c0860182610c19565b50610e0460e0840184610bab565b610e1160e0860182610bc1565b50610e20610100840184610bab565b610e2e610100860182610bc1565b50610e3d610120840184610c03565b610e4b610120860182610c19565b508091505092915050565b5f6020820190508181035f830152610e6e8184610d2d565b905092915050565b5f819050919050565b5f819050919050565b5f610ea2610e9d610e9884610e76565b610e7f565b610bd0565b9050919050565b610eb281610e88565b82525050565b7f4e487b71000000000000000000000000000000000000000000000000000000005f52602160045260245ffd5b60028110610ef657610ef5610eb8565b5b50565b5f819050610f0682610ee5565b919050565b5f610f1582610ef9565b9050919050565b610f2581610f0b565b82525050565b5f608082019050610f3e5f8301876106d6565b610f4b6020830186610ea9565b8181036040830152610f5d818561090c565b9050610f6c6060830184610f1c565b95945050505050565b610f7e81610840565b8114610f88575f80fd5b50565b5f81519050610f9981610f75565b92915050565b5f60208284031215610fb457610fb36106fe565b5b5f610fc184828501610f8b565b91505092915050565b7f4e487b71000000000000000000000000000000000000000000000000000000005f52604160045260245ffd5b5f6020828403121561100c5761100b6106fe565b5b5f6110198482850161071c565b91505092915050565b5f808335600160200384360303811261103e5761103d610a86565b5b80840192508235915067ffffffffffffffff8211156110605761105f610a8a565b5b60208301925060018202360383131561107c5761107b610a8e565b5b509250929050565b5f81905092915050565b5f6110998385611084565b93506110a6838584610a07565b82840190509392505050565b5f6110be82848661108e565b91508190509392505050565b5f602082840312156110df576110de6106fe565b5b5f6110ec84828501610cf4565b91505092915050565b6110fe81610bd0565b82525050565b61110d81610cd2565b82525050565b5f610160820190506111275f83018e61096d565b611134602083018d6106d6565b611141604083018c6110f5565b61114e606083018b61096d565b61115b608083018a611104565b61116860a08301896110f5565b61117560c08301886110f5565b61118260e08301876110f5565b6111906101008301866106d6565b61119e6101208301856106d6565b6111ac6101408301846110f5565b9c9b505050505050505050505050565b5f81519050919050565b5f81905092915050565b5f819050602082019050919050565b6111e881610964565b82525050565b5f6111f983836111df565b60208301905092915050565b5f602082019050919050565b5f61121b826111bc565b61122581856111c6565b9350611230836111d0565b805f5b8381101561126057815161124788826111ee565b975061125283611205565b925050600181019050611233565b5085935050505092915050565b5f6112788284611211565b915081905092915050565b5f81905092915050565b5f80fd5b82818337505050565b5f6112a58385611283565b93507f07ffffffffffffffffffffffffffffffffffffffffffffffffffffffffffffff8311156112d8576112d761128d565b5b6020830292506112e9838584611291565b82840190509392505050565b5f61130182848661129a565b91508190509392505050565b5f6060820190506113205f83018661096d565b61132d602083018561096d565b61133a604083018461096d565b949350505050565b5f7fff0000000000000000000000000000000000000000000000000000000000000082169050919050565b5f819050919050565b61138761138282611342565b61136d565b82525050565b5f819050919050565b6113a76113a282610964565b61138d565b82525050565b5f6113b88287611376565b6001820191506113c88286611376565b6001820191506113d88285611396565b6020820191506113e88284611396565b60208201915081905095945050505050565b5f819050919050565b5f61141d611418611413846113fa565b610e7f565b610cd2565b9050919050565b61142d81611403565b82525050565b5f61144d611448611443846106a6565b610e7f565b6106a6565b9050919050565b5f61145e82611433565b9050919050565b5f61146f82611454565b9050919050565b61147f81611465565b82525050565b5f6060820190506114985f83018661096d565b6114a56020830185611424565b6114b26040830184611476565b94935050505056fea26469706673582212209eb40624ca423b959e6374655fc7b2ede322363818d7b5955d58f6080169357d64736f6c63430008180033","linkReferences":{}},"methodIdentifiers":{"SIGLESS_TRANSACTION_EXECUTOR()":"15858c26","VERSION()":"ffa1ad74","domainSeparator()":"f698da25","encodeTransactionBatchData(((address,uint256,bytes,uint8,uint256,uint256,uint256,address,address,uint256)[],uint256[]))":"e8c032a7","execTransactionBatch(address,((address,uint256,bytes,uint8,uint256,uint256,uint256,address,address,uint256)[],uint256[]),bytes)":"d02372a9"},"id":46}