{"abi":[{"type":"constructor","inputs":[{"name":"_siglessTransactionExecutor","type":"address","internalType":"address"}],"stateMutability":"nonpayable"},{"type":"function","name":"SIGLESS_TRANSACTION_EXECUTOR","inputs":[],"outputs":[{"name":"","type":"address","internalType":"address"}],"stateMutability":"view"},{"type":"function","name":"VERSION","inputs":[],"outputs":[{"name":"","type":"string","internalType":"string"}],"stateMutability":"view"},{"type":"function","name":"domainSeparator","inputs":[],"outputs":[{"name":"","type":"bytes32","internalType":"bytes32"}],"stateMutability":"view"},{"type":"function","name":"encodeTransactionBatchData","inputs":[{"name":"safeTxBatch","type":"tuple","internalType":"struct MultiChainSignaturesModule.SafeTxBatch","components":[{"name":"safeTxs","type":"tuple[]","internalType":"struct ISafeTx.SafeTx[]","components":[{"name":"to","type":"address","internalType":"address"},{"name":"value","type":"uint256","internalType":"uint256"},{"name":"data","type":"bytes","internalType":"bytes"},{"name":"operation","type":"uint8","internalType":"uint8"},{"name":"safeTxGas","type":"uint256","internalType":"uint256"},{"name":"baseGas","type":"uint256","internalType":"uint256"},{"name":"gasPrice","type":"uint256","internalType":"uint256"},{"name":"gasToken","type":"address","internalType":"address"},{"name":"refundReceiver","type":"address","internalType":"address"},{"name":"nonce","type":"uint256","internalType":"uint256"}]},{"name":"chainIds","type":"uint256[]","internalType":"uint256[]"}]}],"outputs":[{"name":"","type":"bytes","internalType":"bytes"}],"stateMutability":"view"},{"type":"function","name":"execTransactionBatch","inputs":[{"name":"account","type":"address","internalType":"address"},{"name":"safeTxBatch","type":"tuple","internalType":"struct MultiChainSignaturesModule.SafeTxBatch","components":[{"name":"safeTxs","type":"tuple[]","internalType":"struct ISafeTx.SafeTx[]","components":[{"name":"to","type":"address","internalType":"address"},{"name":"value","type":"uint256","internalType":"uint256"},{"name":"data","type":"bytes","internalType":"bytes"},{"name":"operation","type":"uint8","internalType":"uint8"},{"name":"safeTxGas","type":"uint256","internalType":"uint256"},{"name":"baseGas","type":"uint256","internalType":"uint256"},{"name":"gasPrice","type":"uint256","internalType":"uint256"},{"name":"gasToken","type":"address","internalType":"address"},{"name":"refundReceiver","type":"address","internalType":"address"},{"name":"nonce","type":"uint256","internalType":"uint256"}]},{"name":"chainIds","type":"uint256[]","internalType":"uint256[]"}]},{"name":"signatures","type":"bytes","internalType":"bytes"}],"outputs":[{"name":"","type":"bool","internalType":"bool"}],"stateMutability":"nonpayable"}],"bytecode":{"object":"0x60a060405234801561000f575f80fd5b50604051610b8d380380610b8d83398101604081905261002e9161003f565b6001600160a01b031660805261006c565b5f6020828403121561004f575f80fd5b81516001600160a01b0381168114610065575f80fd5b9392505050565b608051610b0361008a5f395f8181605e01526101e10152610b035ff3fe608060405234801561000f575f80fd5b5060043610610055575f3560e01c806315858c2614610059578063d02372a91461009d578063e8c032a7146100c0578063f698da25146100e0578063ffa1ad74146100f6575b5f80fd5b6100807f000000000000000000000000000000000000000000000000000000000000000081565b6040516001600160a01b0390911681526020015b60405180910390f35b6100b06100ab366004610658565b61011f565b6040519015158152602001610094565b6100d36100ce3660046106f2565b6102ec565b604051610094919061076f565b6100e86105ce565b604051908152602001610094565b6100d36040518060400160405280600a815260200169312e342e312d4d43534d60b01b81525081565b5f8061012a856102ec565b8051602082012060405163934f3a1160e01b81529192506001600160a01b0388169163934f3a1191610164918590899089906004016107b0565b5f6040518083038186803b15801561017a575f80fd5b505afa15801561018c573d5f803e3d5ffd5b505050505f805b61019d87806107e6565b90508110156102e057466101b460208901896107e6565b838181106101c4576101c4610833565b90506020020135036102d8576001600160a01b03881663468721a77f00000000000000000000000000000000000000000000000000000000000000005f63807cd28f60e01b6102138c806107e6565b8781811061022357610223610833565b90506020028101906102359190610847565b60405160240161024591906108b8565b60408051601f198184030181529181526020820180516001600160e01b03166001600160e01b03199485161790525160e086901b909216825261028f93929160019060040161099d565b6020604051808303815f875af11580156102ab573d5f803e3d5ffd5b505050506040513d601f19601f820116820180604052508101906102cf91906109f0565b6102d857600191505b600101610193565b50159695505050505050565b60605f6102f983806107e6565b905067ffffffffffffffff81111561031357610313610a0f565b60405190808252806020026020018201604052801561033c578160200160208202803683370190505b5090505f5b61034b84806107e6565b90508110156104c1573661035f85806107e6565b8381811061036f5761036f610833565b90506020028101906103819190610847565b90507fbb8310d486368db6bd6f849402fdd73ad53d316b5a4b2644ad6efe0f941286d86103b16020830183610a23565b60208301356103c36040850185610a3c565b6040516103d1929190610a7f565b6040519081900390206103ea6080860160608701610a8e565b608086013560a087013560c088013561040a6101008a0160e08b01610a23565b61041c6101208b016101008c01610a23565b60408051602081019b909b526001600160a01b03998a16908b015260608a0197909752608089019590955260ff90931660a088015260c087019190915260e0860152610100850152821661012084810191909152911661014083015282013561016082015261018001604051602081830303815290604052805190602001208383815181106104ad576104ad610833565b602090810291909101015250600101610341565b505f816040516020016104d49190610aa7565b6040516020818303038152906040528051906020012090505f8480602001906104fd91906107e6565b60405160200161050e929190610adc565b60408051601f1981840301815282825280516020918201207f380edc5493295a56ffff58d3918c1c94a127a863c855db293ab15a2b63f059228285015283830186905260608085018290528351808603909101815260809094019092528251920191909120909150601960f81b600160f81b6105886105ce565b6040516001600160f81b03199384166020820152929091166021830152602282015260428101829052606201604051602081830303815290604052945050505050919050565b604080517f47e79534a245952e8b16893a336b85a3d9ea9fa8c573f3d803afb92a7946921860208201526001918101919091523060608201525f9060800160405160208183030381529060405280519060200120905090565b80356001600160a01b038116811461063d575f80fd5b919050565b5f60408284031215610652575f80fd5b50919050565b5f805f806060858703121561066b575f80fd5b61067485610627565b9350602085013567ffffffffffffffff80821115610690575f80fd5b61069c88838901610642565b945060408701359150808211156106b1575f80fd5b818701915087601f8301126106c4575f80fd5b8135818111156106d2575f80fd5b8860208285010111156106e3575f80fd5b95989497505060200194505050565b5f60208284031215610702575f80fd5b813567ffffffffffffffff811115610718575f80fd5b61072484828501610642565b949350505050565b5f81518084525f5b8181101561075057602081850181015186830182015201610734565b505f602082860101526020601f19601f83011685010191505092915050565b602081525f610781602083018461072c565b9392505050565b81835281816020850137505f828201602090810191909152601f909101601f19169091010190565b848152606060208201525f6107c8606083018661072c565b82810360408401526107db818587610788565b979650505050505050565b5f808335601e198436030181126107fb575f80fd5b83018035915067ffffffffffffffff821115610815575f80fd5b6020019150600581901b360382131561082c575f80fd5b9250929050565b634e487b7160e01b5f52603260045260245ffd5b5f823561013e1983360301811261085c575f80fd5b9190910192915050565b5f808335601e1984360301811261087b575f80fd5b830160208101925035905067ffffffffffffffff81111561089a575f80fd5b80360382131561082c575f80fd5b803560ff8116811461063d575f80fd5b602081526108d9602082016108cc84610627565b6001600160a01b03169052565b602082013560408201525f6108f16040840184610866565b61014080606086015261090961016086018385610788565b9250610917606087016108a8565b60ff811660808701529150608086013560a086015260a086013560c086015260c086013560e086015261094c60e08701610627565b9150610100610965818701846001600160a01b03169052565b610970818801610627565b92505061012061098a818701846001600160a01b03169052565b9590950135939094019290925250919050565b60018060a01b0385168152836020820152608060408201525f6109c3608083018561072c565b9050600283106109e157634e487b7160e01b5f52602160045260245ffd5b82606083015295945050505050565b5f60208284031215610a00575f80fd5b81518015158114610781575f80fd5b634e487b7160e01b5f52604160045260245ffd5b5f60208284031215610a33575f80fd5b61078182610627565b5f808335601e19843603018112610a51575f80fd5b83018035915067ffffffffffffffff821115610a6b575f80fd5b60200191503681900382131561082c575f80fd5b818382375f9101908152919050565b5f60208284031215610a9e575f80fd5b610781826108a8565b81515f9082906020808601845b83811015610ad057815185529382019390820190600101610ab4565b50929695505050505050565b5f6001600160fb1b03831115610af0575f80fd5b8260051b8085843791909101939250505056","linkReferences":{}},"methodIdentifiers":{"SIGLESS_TRANSACTION_EXECUTOR()":"15858c26","VERSION()":"ffa1ad74","domainSeparator()":"f698da25","encodeTransactionBatchData(((address,uint256,bytes,uint8,uint256,uint256,uint256,address,address,uint256)[],uint256[]))":"e8c032a7","execTransactionBatch(address,((address,uint256,bytes,uint8,uint256,uint256,uint256,address,address,uint256)[],uint256[]),bytes)":"d02372a9"},"id":46}